{
  "_format": "hh-sol-artifact-1",
  "contractName": "NFTMarketplace",
  "sourceName": "contracts/NFTmarketplace.sol",
  "abi": [
    {
      "inputs": [
        {
          "internalType": "uint256",
          "name": "_tokenId",
          "type": "uint256"
        }
      ],
      "name": "available",
      "outputs": [
        {
          "internalType": "bool",
          "name": "",
          "type": "bool"
        }
      ],
      "stateMutability": "view",
      "type": "function"
    },
    {
      "inputs": [],
      "name": "getPrice",
      "outputs": [
        {
          "internalType": "uint256",
          "name": "",
          "type": "uint256"
        }
      ],
      "stateMutability": "view",
      "type": "function"
    },
    {
      "inputs": [
        {
          "internalType": "uint256",
          "name": "_tokenId",
          "type": "uint256"
        }
      ],
      "name": "purchase",
      "outputs": [],
      "stateMutability": "payable",
      "type": "function"
    },
    {
      "inputs": [
        {
          "internalType": "uint256",
          "name": "",
          "type": "uint256"
        }
      ],
      "name": "tokens",
      "outputs": [
        {
          "internalType": "address",
          "name": "",
          "type": "address"
        }
      ],
      "stateMutability": "view",
      "type": "function"
    }
  ],
  "bytecode": "0x608060405267016345785d8a000060015534801561001c57600080fd5b506105408061002c6000396000f3fe60806040526004361061003f5760003560e01c80634f64b2be1461004457806396e494e81461008157806398d5fdca146100be578063efef39a1146100e9575b600080fd5b34801561005057600080fd5b5061006b60048036038101906100669190610338565b610105565b60405161007891906103a6565b60405180910390f35b34801561008d57600080fd5b506100a860048036038101906100a39190610338565b610138565b6040516100b591906103dc565b60405180910390f35b3480156100ca57600080fd5b506100d36101b2565b6040516100e09190610406565b60405180910390f35b61010360048036038101906100fe9190610338565b6101bc565b005b60006020528060005260406000206000915054906101000a900473ffffffffffffffffffffffffffffffffffffffff1681565b60008073ffffffffffffffffffffffffffffffffffffffff1660008084815260200190815260200160002060009054906101000a900473ffffffffffffffffffffffffffffffffffffffff1673ffffffffffffffffffffffffffffffffffffffff16036101a857600190506101ad565b600090505b919050565b6000600154905090565b80600073ffffffffffffffffffffffffffffffffffffffff1660008083815260200190815260200160002060009054906101000a900473ffffffffffffffffffffffffffffffffffffffff1673ffffffffffffffffffffffffffffffffffffffff160361025e576040517f08c379a00000000000000000000000000000000000000000000000000000000081526004016102559061047e565b60405180910390fd5b67016345785d8a000034146102a8576040517f08c379a000000000000000000000000000000000000000000000000000000000815260040161029f906104ea565b60405180910390fd5b3360008084815260200190815260200160002060006101000a81548173ffffffffffffffffffffffffffffffffffffffff021916908373ffffffffffffffffffffffffffffffffffffffff1602179055505050565b600080fd5b6000819050919050565b61031581610302565b811461032057600080fd5b50565b6000813590506103328161030c565b92915050565b60006020828403121561034e5761034d6102fd565b5b600061035c84828501610323565b91505092915050565b600073ffffffffffffffffffffffffffffffffffffffff82169050919050565b600061039082610365565b9050919050565b6103a081610385565b82525050565b60006020820190506103bb6000830184610397565b92915050565b60008115159050919050565b6103d6816103c1565b82525050565b60006020820190506103f160008301846103cd565b92915050565b61040081610302565b82525050565b600060208201905061041b60008301846103f7565b92915050565b600082825260208201905092915050565b7f546f6b656e20616c726561647920707572636861736564000000000000000000600082015250565b6000610468601783610421565b915061047382610432565b602082019050919050565b600060208201905081810360008301526104978161045b565b9050919050565b7f73656e6420302e31206574686572000000000000000000000000000000000000600082015250565b60006104d4600e83610421565b91506104df8261049e565b602082019050919050565b60006020820190508181036000830152610503816104c7565b905091905056fea26469706673582212208d228b51fa9dd642aefc4295d9110aa2a5fe16302e403cf52cee64f7b396258c64736f6c63430008120033",
  "linkReferences": {},
  "deployedLinkReferences": {}
}