{
  "_format": "hh-sol-artifact-1",
  "contractName": "DAOToken",
  "sourceName": "contracts/Daotoken.sol",
  "abi": [
    {
      "inputs": [],
      "stateMutability": "nonpayable",
      "type": "constructor"
    },
    {
      "anonymous": false,
      "inputs": [
        {
          "indexed": true,
          "internalType": "address",
          "name": "owner",
          "type": "address"
        },
        {
          "indexed": true,
          "internalType": "address",
          "name": "approved",
          "type": "address"
        },
        {
          "indexed": true,
          "internalType": "uint256",
          "name": "tokenId",
          "type": "uint256"
        }
      ],
      "name": "Approval",
      "type": "event"
    },
    {
      "anonymous": false,
      "inputs": [
        {
          "indexed": true,
          "internalType": "address",
          "name": "owner",
          "type": "address"
        },
        {
          "indexed": true,
          "internalType": "address",
          "name": "operator",
          "type": "address"
        },
        {
          "indexed": false,
          "internalType": "bool",
          "name": "approved",
          "type": "bool"
        }
      ],
      "name": "ApprovalForAll",
      "type": "event"
    },
    {
      "anonymous": false,
      "inputs": [
        {
          "indexed": true,
          "internalType": "address",
          "name": "from",
          "type": "address"
        },
        {
          "indexed": true,
          "internalType": "address",
          "name": "to",
          "type": "address"
        },
        {
          "indexed": true,
          "internalType": "uint256",
          "name": "tokenId",
          "type": "uint256"
        }
      ],
      "name": "Transfer",
      "type": "event"
    },
    {
      "inputs": [
        {
          "internalType": "address",
          "name": "to",
          "type": "address"
        },
        {
          "internalType": "uint256",
          "name": "tokenId",
          "type": "uint256"
        }
      ],
      "name": "approve",
      "outputs": [],
      "stateMutability": "nonpayable",
      "type": "function"
    },
    {
      "inputs": [
        {
          "internalType": "address",
          "name": "owner",
          "type": "address"
        }
      ],
      "name": "balanceOf",
      "outputs": [
        {
          "internalType": "uint256",
          "name": "",
          "type": "uint256"
        }
      ],
      "stateMutability": "view",
      "type": "function"
    },
    {
      "inputs": [
        {
          "internalType": "uint256",
          "name": "tokenId",
          "type": "uint256"
        }
      ],
      "name": "getApproved",
      "outputs": [
        {
          "internalType": "address",
          "name": "",
          "type": "address"
        }
      ],
      "stateMutability": "view",
      "type": "function"
    },
    {
      "inputs": [
        {
          "internalType": "address",
          "name": "owner",
          "type": "address"
        },
        {
          "internalType": "address",
          "name": "operator",
          "type": "address"
        }
      ],
      "name": "isApprovedForAll",
      "outputs": [
        {
          "internalType": "bool",
          "name": "",
          "type": "bool"
        }
      ],
      "stateMutability": "view",
      "type": "function"
    },
    {
      "inputs": [],
      "name": "mint",
      "outputs": [],
      "stateMutability": "payable",
      "type": "function"
    },
    {
      "inputs": [],
      "name": "name",
      "outputs": [
        {
          "internalType": "string",
          "name": "",
          "type": "string"
        }
      ],
      "stateMutability": "view",
      "type": "function"
    },
    {
      "inputs": [
        {
          "internalType": "uint256",
          "name": "tokenId",
          "type": "uint256"
        }
      ],
      "name": "ownerOf",
      "outputs": [
        {
          "internalType": "address",
          "name": "",
          "type": "address"
        }
      ],
      "stateMutability": "view",
      "type": "function"
    },
    {
      "inputs": [
        {
          "internalType": "address",
          "name": "from",
          "type": "address"
        },
        {
          "internalType": "address",
          "name": "to",
          "type": "address"
        },
        {
          "internalType": "uint256",
          "name": "tokenId",
          "type": "uint256"
        }
      ],
      "name": "safeTransferFrom",
      "outputs": [],
      "stateMutability": "nonpayable",
      "type": "function"
    },
    {
      "inputs": [
        {
          "internalType": "address",
          "name": "from",
          "type": "address"
        },
        {
          "internalType": "address",
          "name": "to",
          "type": "address"
        },
        {
          "internalType": "uint256",
          "name": "tokenId",
          "type": "uint256"
        },
        {
          "internalType": "bytes",
          "name": "data",
          "type": "bytes"
        }
      ],
      "name": "safeTransferFrom",
      "outputs": [],
      "stateMutability": "nonpayable",
      "type": "function"
    },
    {
      "inputs": [
        {
          "internalType": "address",
          "name": "operator",
          "type": "address"
        },
        {
          "internalType": "bool",
          "name": "approved",
          "type": "bool"
        }
      ],
      "name": "setApprovalForAll",
      "outputs": [],
      "stateMutability": "nonpayable",
      "type": "function"
    },
    {
      "inputs": [
        {
          "internalType": "bytes4",
          "name": "interfaceId",
          "type": "bytes4"
        }
      ],
      "name": "supportsInterface",
      "outputs": [
        {
          "internalType": "bool",
          "name": "",
          "type": "bool"
        }
      ],
      "stateMutability": "view",
      "type": "function"
    },
    {
      "inputs": [],
      "name": "symbol",
      "outputs": [
        {
          "internalType": "string",
          "name": "",
          "type": "string"
        }
      ],
      "stateMutability": "view",
      "type": "function"
    },
    {
      "inputs": [
        {
          "internalType": "uint256",
          "name": "index",
          "type": "uint256"
        }
      ],
      "name": "tokenByIndex",
      "outputs": [
        {
          "internalType": "uint256",
          "name": "",
          "type": "uint256"
        }
      ],
      "stateMutability": "view",
      "type": "function"
    },
    {
      "inputs": [
        {
          "internalType": "address",
          "name": "owner",
          "type": "address"
        },
        {
          "internalType": "uint256",
          "name": "index",
          "type": "uint256"
        }
      ],
      "name": "tokenOfOwnerByIndex",
      "outputs": [
        {
          "internalType": "uint256",
          "name": "",
          "type": "uint256"
        }
      ],
      "stateMutability": "view",
      "type": "function"
    },
    {
      "inputs": [
        {
          "internalType": "uint256",
          "name": "tokenId",
          "type": "uint256"
        }
      ],
      "name": "tokenURI",
      "outputs": [
        {
          "internalType": "string",
          "name": "",
          "type": "string"
        }
      ],
      "stateMutability": "view",
      "type": "function"
    },
    {
      "inputs": [],
      "name": "totalSupply",
      "outputs": [
        {
          "internalType": "uint256",
          "name": "",
          "type": "uint256"
        }
      ],
      "stateMutability": "view",
      "type": "function"
    },
    {
      "inputs": [
        {
          "internalType": "address",
          "name": "from",
          "type": "address"
        },
        {
          "internalType": "address",
          "name": "to",
          "type": "address"
        },
        {
          "internalType": "uint256",
          "name": "tokenId",
          "type": "uint256"
        }
      ],
      "name": "transferFrom",
      "outputs": [],
      "stateMutability": "nonpayable",
      "type": "function"
    }
  ],
  "bytecode": "0x60806040523480156200001157600080fd5b506040518060400160405280600881526020017f44414f546f6b656e0000000000000000000000000000000000000000000000008152506040518060400160405280600281526020017f445400000000000000000000000000000000000000000000000000000000000081525081600090816200008f919062000324565b508060019081620000a1919062000324565b5050506200040b565b600081519050919050565b7f4e487b7100000000000000000000000000000000000000000000000000000000600052604160045260246000fd5b7f4e487b7100000000000000000000000000000000000000000000000000000000600052602260045260246000fd5b600060028204905060018216806200012c57607f821691505b602082108103620001425762000141620000e4565b5b50919050565b60008190508160005260206000209050919050565b60006020601f8301049050919050565b600082821b905092915050565b600060088302620001ac7fffffffffffffffffffffffffffffffffffffffffffffffffffffffffffffffff826200016d565b620001b886836200016d565b95508019841693508086168417925050509392505050565b6000819050919050565b6000819050919050565b600062000205620001ff620001f984620001d0565b620001da565b620001d0565b9050919050565b6000819050919050565b6200022183620001e4565b6200023962000230826200020c565b8484546200017a565b825550505050565b600090565b6200025062000241565b6200025d81848462000216565b505050565b5b8181101562000285576200027960008262000246565b60018101905062000263565b5050565b601f821115620002d4576200029e8162000148565b620002a9846200015d565b81016020851015620002b9578190505b620002d1620002c8856200015d565b83018262000262565b50505b505050565b600082821c905092915050565b6000620002f960001984600802620002d9565b1980831691505092915050565b6000620003148383620002e6565b9150826002028217905092915050565b6200032f82620000aa565b67ffffffffffffffff8111156200034b576200034a620000b5565b5b62000357825462000113565b6200036482828562000289565b600060209050601f8311600181146200039c576000841562000387578287015190505b62000393858262000306565b86555062000403565b601f198416620003ac8662000148565b60005b82811015620003d657848901518255600182019150602085019450602081019050620003af565b86831015620003f65784890151620003f2601f891682620002e6565b8355505b6001600288020188555050505b505050505050565b612edc806200041b6000396000f3fe6080604052600436106100fe5760003560e01c806342842e0e1161009557806395d89b411161006457806395d89b411461034c578063a22cb46514610377578063b88d4fde146103a0578063c87b56dd146103c9578063e985e9c514610406576100fe565b806342842e0e1461026c5780634f6ccce7146102955780636352211e146102d257806370a082311461030f576100fe565b80631249c58b116100d15780631249c58b146101d157806318160ddd146101db57806323b872dd146102065780632f745c591461022f576100fe565b806301ffc9a71461010357806306fdde0314610140578063081812fc1461016b578063095ea7b3146101a8575b600080fd5b34801561010f57600080fd5b5061012a60048036038101906101259190611ef5565b610443565b6040516101379190611f3d565b60405180910390f35b34801561014c57600080fd5b506101556104bd565b6040516101629190611fe8565b60405180910390f35b34801561017757600080fd5b50610192600480360381019061018d9190612040565b61054f565b60405161019f91906120ae565b60405180910390f35b3480156101b457600080fd5b506101cf60048036038101906101ca91906120f5565b610595565b005b6101d96106ac565b005b3480156101e757600080fd5b506101f0610708565b6040516101fd9190612144565b60405180910390f35b34801561021257600080fd5b5061022d6004803603810190610228919061215f565b610715565b005b34801561023b57600080fd5b50610256600480360381019061025191906120f5565b610775565b6040516102639190612144565b60405180910390f35b34801561027857600080fd5b50610293600480360381019061028e919061215f565b61081a565b005b3480156102a157600080fd5b506102bc60048036038101906102b79190612040565b61083a565b6040516102c99190612144565b60405180910390f35b3480156102de57600080fd5b506102f960048036038101906102f49190612040565b6108ab565b60405161030691906120ae565b60405180910390f35b34801561031b57600080fd5b50610336600480360381019061033191906121b2565b610931565b6040516103439190612144565b60405180910390f35b34801561035857600080fd5b506103616109e8565b60405161036e9190611fe8565b60405180910390f35b34801561038357600080fd5b5061039e6004803603810190610399919061220b565b610a7a565b005b3480156103ac57600080fd5b506103c760048036038101906103c29190612380565b610a90565b005b3480156103d557600080fd5b506103f060048036038101906103eb9190612040565b610af2565b6040516103fd9190611fe8565b60405180910390f35b34801561041257600080fd5b5061042d60048036038101906104289190612403565b610b5a565b60405161043a9190611f3d565b60405180910390f35b60007f780e9d63000000000000000000000000000000000000000000000000000000007bffffffffffffffffffffffffffffffffffffffffffffffffffffffff1916827bffffffffffffffffffffffffffffffffffffffffffffffffffffffff191614806104b657506104b582610bee565b5b9050919050565b6060600080546104cc90612472565b80601f01602080910402602001604051908101604052809291908181526020018280546104f890612472565b80156105455780601f1061051a57610100808354040283529160200191610545565b820191906000526020600020905b81548152906001019060200180831161052857829003601f168201915b5050505050905090565b600061055a82610cd0565b6004600083815260200190815260200160002060009054906101000a900473ffffffffffffffffffffffffffffffffffffffff169050919050565b60006105a0826108ab565b90508073ffffffffffffffffffffffffffffffffffffffff168373ffffffffffffffffffffffffffffffffffffffff1603610610576040517f08c379a000000000000000000000000000000000000000000000000000000000815260040161060790612515565b60405180910390fd5b8073ffffffffffffffffffffffffffffffffffffffff1661062f610d1b565b73ffffffffffffffffffffffffffffffffffffffff16148061065e575061065d81610658610d1b565b610b5a565b5b61069d576040517f08c379a0000000000000000000000000000000000000000000000000000000008152600401610694906125a7565b60405180910390fd5b6106a78383610d23565b505050565b66470de4df82000034146106f5576040517f08c379a00000000000000000000000000000000000000000000000000000000081526004016106ec90612613565b60405180910390fd5b61070633610701610708565b610ddc565b565b6000600880549050905090565b610726610720610d1b565b82610ff9565b610765576040517f08c379a000000000000000000000000000000000000000000000000000000000815260040161075c906126a5565b60405180910390fd5b61077083838361108e565b505050565b600061078083610931565b82106107c1576040517f08c379a00000000000000000000000000000000000000000000000000000000081526004016107b890612737565b60405180910390fd5b600660008473ffffffffffffffffffffffffffffffffffffffff1673ffffffffffffffffffffffffffffffffffffffff168152602001908152602001600020600083815260200190815260200160002054905092915050565b61083583838360405180602001604052806000815250610a90565b505050565b6000610844610708565b8210610885576040517f08c379a000000000000000000000000000000000000000000000000000000000815260040161087c906127c9565b60405180910390fd5b60088281548110610899576108986127e9565b5b90600052602060002001549050919050565b6000806108b783611387565b9050600073ffffffffffffffffffffffffffffffffffffffff168173ffffffffffffffffffffffffffffffffffffffff1603610928576040517f08c379a000000000000000000000000000000000000000000000000000000000815260040161091f90612864565b60405180910390fd5b80915050919050565b60008073ffffffffffffffffffffffffffffffffffffffff168273ffffffffffffffffffffffffffffffffffffffff16036109a1576040517f08c379a0000000000000000000000000000000000000000000000000000000008152600401610998906128f6565b60405180910390fd5b600360008373ffffffffffffffffffffffffffffffffffffffff1673ffffffffffffffffffffffffffffffffffffffff168152602001908152602001600020549050919050565b6060600180546109f790612472565b80601f0160208091040260200160405190810160405280929190818152602001828054610a2390612472565b8015610a705780601f10610a4557610100808354040283529160200191610a70565b820191906000526020600020905b815481529060010190602001808311610a5357829003601f168201915b5050505050905090565b610a8c610a85610d1b565b83836113c4565b5050565b610aa1610a9b610d1b565b83610ff9565b610ae0576040517f08c379a0000000000000000000000000000000000000000000000000000000008152600401610ad7906126a5565b60405180910390fd5b610aec84848484611530565b50505050565b6060610afd82610cd0565b6000610b0761158c565b90506000815111610b275760405180602001604052806000815250610b52565b80610b31846115a3565b604051602001610b42929190612952565b6040516020818303038152906040525b915050919050565b6000600560008473ffffffffffffffffffffffffffffffffffffffff1673ffffffffffffffffffffffffffffffffffffffff16815260200190815260200160002060008373ffffffffffffffffffffffffffffffffffffffff1673ffffffffffffffffffffffffffffffffffffffff16815260200190815260200160002060009054906101000a900460ff16905092915050565b60007f80ac58cd000000000000000000000000000000000000000000000000000000007bffffffffffffffffffffffffffffffffffffffffffffffffffffffff1916827bffffffffffffffffffffffffffffffffffffffffffffffffffffffff19161480610cb957507f5b5e139f000000000000000000000000000000000000000000000000000000007bffffffffffffffffffffffffffffffffffffffffffffffffffffffff1916827bffffffffffffffffffffffffffffffffffffffffffffffffffffffff1916145b80610cc95750610cc882611671565b5b9050919050565b610cd9816116db565b610d18576040517f08c379a0000000000000000000000000000000000000000000000000000000008152600401610d0f90612864565b60405180910390fd5b50565b600033905090565b816004600083815260200190815260200160002060006101000a81548173ffffffffffffffffffffffffffffffffffffffff021916908373ffffffffffffffffffffffffffffffffffffffff160217905550808273ffffffffffffffffffffffffffffffffffffffff16610d96836108ab565b73ffffffffffffffffffffffffffffffffffffffff167f8c5be1e5ebec7d5bd14f71427d1e84f3dd0314c0f7b2291e5b200ac8c7c3b92560405160405180910390a45050565b600073ffffffffffffffffffffffffffffffffffffffff168273ffffffffffffffffffffffffffffffffffffffff1603610e4b576040517f08c379a0000000000000000000000000000000000000000000000000000000008152600401610e42906129c2565b60405180910390fd5b610e54816116db565b15610e94576040517f08c379a0000000000000000000000000000000000000000000000000000000008152600401610e8b90612a2e565b60405180910390fd5b610ea260008383600161171c565b610eab816116db565b15610eeb576040517f08c379a0000000000000000000000000000000000000000000000000000000008152600401610ee290612a2e565b60405180910390fd5b6001600360008473ffffffffffffffffffffffffffffffffffffffff1673ffffffffffffffffffffffffffffffffffffffff16815260200190815260200160002060008282540192505081905550816002600083815260200190815260200160002060006101000a81548173ffffffffffffffffffffffffffffffffffffffff021916908373ffffffffffffffffffffffffffffffffffffffff160217905550808273ffffffffffffffffffffffffffffffffffffffff16600073ffffffffffffffffffffffffffffffffffffffff167fddf252ad1be2c89b69c2b068fc378daa952ba7f163c4a11628f55a4df523b3ef60405160405180910390a4610ff560008383600161187a565b5050565b600080611005836108ab565b90508073ffffffffffffffffffffffffffffffffffffffff168473ffffffffffffffffffffffffffffffffffffffff16148061104757506110468185610b5a565b5b8061108557508373ffffffffffffffffffffffffffffffffffffffff1661106d8461054f565b73ffffffffffffffffffffffffffffffffffffffff16145b91505092915050565b8273ffffffffffffffffffffffffffffffffffffffff166110ae826108ab565b73ffffffffffffffffffffffffffffffffffffffff1614611104576040517f08c379a00000000000000000000000000000000000000000000000000000000081526004016110fb90612ac0565b60405180910390fd5b600073ffffffffffffffffffffffffffffffffffffffff168273ffffffffffffffffffffffffffffffffffffffff1603611173576040517f08c379a000000000000000000000000000000000000000000000000000000000815260040161116a90612b52565b60405180910390fd5b611180838383600161171c565b8273ffffffffffffffffffffffffffffffffffffffff166111a0826108ab565b73ffffffffffffffffffffffffffffffffffffffff16146111f6576040517f08c379a00000000000000000000000000000000000000000000000000000000081526004016111ed90612ac0565b60405180910390fd5b6004600082815260200190815260200160002060006101000a81549073ffffffffffffffffffffffffffffffffffffffff02191690556001600360008573ffffffffffffffffffffffffffffffffffffffff1673ffffffffffffffffffffffffffffffffffffffff168152602001908152602001600020600082825403925050819055506001600360008473ffffffffffffffffffffffffffffffffffffffff1673ffffffffffffffffffffffffffffffffffffffff16815260200190815260200160002060008282540192505081905550816002600083815260200190815260200160002060006101000a81548173ffffffffffffffffffffffffffffffffffffffff021916908373ffffffffffffffffffffffffffffffffffffffff160217905550808273ffffffffffffffffffffffffffffffffffffffff168473ffffffffffffffffffffffffffffffffffffffff167fddf252ad1be2c89b69c2b068fc378daa952ba7f163c4a11628f55a4df523b3ef60405160405180910390a4611382838383600161187a565b505050565b60006002600083815260200190815260200160002060009054906101000a900473ffffffffffffffffffffffffffffffffffffffff169050919050565b8173ffffffffffffffffffffffffffffffffffffffff168373ffffffffffffffffffffffffffffffffffffffff1603611432576040517f08c379a000000000000000000000000000000000000000000000000000000000815260040161142990612bbe565b60405180910390fd5b80600560008573ffffffffffffffffffffffffffffffffffffffff1673ffffffffffffffffffffffffffffffffffffffff16815260200190815260200160002060008473ffffffffffffffffffffffffffffffffffffffff1673ffffffffffffffffffffffffffffffffffffffff16815260200190815260200160002060006101000a81548160ff0219169083151502179055508173ffffffffffffffffffffffffffffffffffffffff168373ffffffffffffffffffffffffffffffffffffffff167f17307eab39ab6107e8899845ad3d59bd9653f200f220920489ca2b5937696c31836040516115239190611f3d565b60405180910390a3505050565b61153b84848461108e565b61154784848484611880565b611586576040517f08c379a000000000000000000000000000000000000000000000000000000000815260040161157d90612c50565b60405180910390fd5b50505050565b606060405180602001604052806000815250905090565b6060600060016115b284611a07565b01905060008167ffffffffffffffff8111156115d1576115d0612255565b5b6040519080825280601f01601f1916602001820160405280156116035781602001600182028036833780820191505090505b509050600082602001820190505b600115611666578080600190039150507f3031323334353637383961626364656600000000000000000000000000000000600a86061a8153600a858161165a57611659612c70565b5b04945060008503611611575b819350505050919050565b60007f01ffc9a7000000000000000000000000000000000000000000000000000000007bffffffffffffffffffffffffffffffffffffffffffffffffffffffff1916827bffffffffffffffffffffffffffffffffffffffffffffffffffffffff1916149050919050565b60008073ffffffffffffffffffffffffffffffffffffffff166116fd83611387565b73ffffffffffffffffffffffffffffffffffffffff1614159050919050565b61172884848484611b5a565b600181111561176c576040517f08c379a000000000000000000000000000000000000000000000000000000000815260040161176390612d11565b60405180910390fd5b6000829050600073ffffffffffffffffffffffffffffffffffffffff168573ffffffffffffffffffffffffffffffffffffffff16036117b3576117ae81611b60565b6117f2565b8373ffffffffffffffffffffffffffffffffffffffff168573ffffffffffffffffffffffffffffffffffffffff16146117f1576117f08582611ba9565b5b5b600073ffffffffffffffffffffffffffffffffffffffff168473ffffffffffffffffffffffffffffffffffffffff16036118345761182f81611d16565b611873565b8473ffffffffffffffffffffffffffffffffffffffff168473ffffffffffffffffffffffffffffffffffffffff1614611872576118718482611de7565b5b5b5050505050565b50505050565b60006118a18473ffffffffffffffffffffffffffffffffffffffff16611e66565b156119fa578373ffffffffffffffffffffffffffffffffffffffff1663150b7a026118ca610d1b565b8786866040518563ffffffff1660e01b81526004016118ec9493929190612d86565b6020604051808303816000875af192505050801561192857506040513d601f19601f820116820180604052508101906119259190612de7565b60015b6119aa573d8060008114611958576040519150601f19603f3d011682016040523d82523d6000602084013e61195d565b606091505b5060008151036119a2576040517f08c379a000000000000000000000000000000000000000000000000000000000815260040161199990612c50565b60405180910390fd5b805181602001fd5b63150b7a0260e01b7bffffffffffffffffffffffffffffffffffffffffffffffffffffffff1916817bffffffffffffffffffffffffffffffffffffffffffffffffffffffff1916149150506119ff565b600190505b949350505050565b600080600090507a184f03e93ff9f4daa797ed6e38ed64bf6a1f0100000000000000008310611a65577a184f03e93ff9f4daa797ed6e38ed64bf6a1f0100000000000000008381611a5b57611a5a612c70565b5b0492506040810190505b6d04ee2d6d415b85acef81000000008310611aa2576d04ee2d6d415b85acef81000000008381611a9857611a97612c70565b5b0492506020810190505b662386f26fc100008310611ad157662386f26fc100008381611ac757611ac6612c70565b5b0492506010810190505b6305f5e1008310611afa576305f5e1008381611af057611aef612c70565b5b0492506008810190505b6127108310611b1f576127108381611b1557611b14612c70565b5b0492506004810190505b60648310611b425760648381611b3857611b37612c70565b5b0492506002810190505b600a8310611b51576001810190505b80915050919050565b50505050565b6008805490506009600083815260200190815260200160002081905550600881908060018154018082558091505060019003906000526020600020016000909190919091505550565b60006001611bb684610931565b611bc09190612e43565b9050600060076000848152602001908152602001600020549050818114611ca5576000600660008673ffffffffffffffffffffffffffffffffffffffff1673ffffffffffffffffffffffffffffffffffffffff168152602001908152602001600020600084815260200190815260200160002054905080600660008773ffffffffffffffffffffffffffffffffffffffff1673ffffffffffffffffffffffffffffffffffffffff168152602001908152602001600020600084815260200190815260200160002081905550816007600083815260200190815260200160002081905550505b6007600084815260200190815260200160002060009055600660008573ffffffffffffffffffffffffffffffffffffffff1673ffffffffffffffffffffffffffffffffffffffff16815260200190815260200160002060008381526020019081526020016000206000905550505050565b60006001600880549050611d2a9190612e43565b9050600060096000848152602001908152602001600020549050600060088381548110611d5a57611d596127e9565b5b906000526020600020015490508060088381548110611d7c57611d7b6127e9565b5b906000526020600020018190555081600960008381526020019081526020016000208190555060096000858152602001908152602001600020600090556008805480611dcb57611dca612e77565b5b6001900381819060005260206000200160009055905550505050565b6000611df283610931565b905081600660008573ffffffffffffffffffffffffffffffffffffffff1673ffffffffffffffffffffffffffffffffffffffff168152602001908152602001600020600083815260200190815260200160002081905550806007600084815260200190815260200160002081905550505050565b6000808273ffffffffffffffffffffffffffffffffffffffff163b119050919050565b6000604051905090565b600080fd5b600080fd5b60007fffffffff0000000000000000000000000000000000000000000000000000000082169050919050565b611ed281611e9d565b8114611edd57600080fd5b50565b600081359050611eef81611ec9565b92915050565b600060208284031215611f0b57611f0a611e93565b5b6000611f1984828501611ee0565b91505092915050565b60008115159050919050565b611f3781611f22565b82525050565b6000602082019050611f526000830184611f2e565b92915050565b600081519050919050565b600082825260208201905092915050565b60005b83811015611f92578082015181840152602081019050611f77565b60008484015250505050565b6000601f19601f8301169050919050565b6000611fba82611f58565b611fc48185611f63565b9350611fd4818560208601611f74565b611fdd81611f9e565b840191505092915050565b600060208201905081810360008301526120028184611faf565b905092915050565b6000819050919050565b61201d8161200a565b811461202857600080fd5b50565b60008135905061203a81612014565b92915050565b60006020828403121561205657612055611e93565b5b60006120648482850161202b565b91505092915050565b600073ffffffffffffffffffffffffffffffffffffffff82169050919050565b60006120988261206d565b9050919050565b6120a88161208d565b82525050565b60006020820190506120c3600083018461209f565b92915050565b6120d28161208d565b81146120dd57600080fd5b50565b6000813590506120ef816120c9565b92915050565b6000806040838503121561210c5761210b611e93565b5b600061211a858286016120e0565b925050602061212b8582860161202b565b9150509250929050565b61213e8161200a565b82525050565b60006020820190506121596000830184612135565b92915050565b60008060006060848603121561217857612177611e93565b5b6000612186868287016120e0565b9350506020612197868287016120e0565b92505060406121a88682870161202b565b9150509250925092565b6000602082840312156121c8576121c7611e93565b5b60006121d6848285016120e0565b91505092915050565b6121e881611f22565b81146121f357600080fd5b50565b600081359050612205816121df565b92915050565b6000806040838503121561222257612221611e93565b5b6000612230858286016120e0565b9250506020612241858286016121f6565b9150509250929050565b600080fd5b600080fd5b7f4e487b7100000000000000000000000000000000000000000000000000000000600052604160045260246000fd5b61228d82611f9e565b810181811067ffffffffffffffff821117156122ac576122ab612255565b5b80604052505050565b60006122bf611e89565b90506122cb8282612284565b919050565b600067ffffffffffffffff8211156122eb576122ea612255565b5b6122f482611f9e565b9050602081019050919050565b82818337600083830152505050565b600061232361231e846122d0565b6122b5565b90508281526020810184848401111561233f5761233e612250565b5b61234a848285612301565b509392505050565b600082601f8301126123675761236661224b565b5b8135612377848260208601612310565b91505092915050565b6000806000806080858703121561239a57612399611e93565b5b60006123a8878288016120e0565b94505060206123b9878288016120e0565b93505060406123ca8782880161202b565b925050606085013567ffffffffffffffff8111156123eb576123ea611e98565b5b6123f787828801612352565b91505092959194509250565b6000806040838503121561241a57612419611e93565b5b6000612428858286016120e0565b9250506020612439858286016120e0565b9150509250929050565b7f4e487b7100000000000000000000000000000000000000000000000000000000600052602260045260246000fd5b6000600282049050600182168061248a57607f821691505b60208210810361249d5761249c612443565b5b50919050565b7f4552433732313a20617070726f76616c20746f2063757272656e74206f776e6560008201527f7200000000000000000000000000000000000000000000000000000000000000602082015250565b60006124ff602183611f63565b915061250a826124a3565b604082019050919050565b6000602082019050818103600083015261252e816124f2565b9050919050565b7f4552433732313a20617070726f76652063616c6c6572206973206e6f7420746f60008201527f6b656e206f776e6572206f7220617070726f76656420666f7220616c6c000000602082015250565b6000612591603d83611f63565b915061259c82612535565b604082019050919050565b600060208201905081810360008301526125c081612584565b9050919050565b7f73656e6420302e30322065746865720000000000000000000000000000000000600082015250565b60006125fd600f83611f63565b9150612608826125c7565b602082019050919050565b6000602082019050818103600083015261262c816125f0565b9050919050565b7f4552433732313a2063616c6c6572206973206e6f7420746f6b656e206f776e6560008201527f72206f7220617070726f76656400000000000000000000000000000000000000602082015250565b600061268f602d83611f63565b915061269a82612633565b604082019050919050565b600060208201905081810360008301526126be81612682565b9050919050565b7f455243373231456e756d657261626c653a206f776e657220696e646578206f7560008201527f74206f6620626f756e6473000000000000000000000000000000000000000000602082015250565b6000612721602b83611f63565b915061272c826126c5565b604082019050919050565b6000602082019050818103600083015261275081612714565b9050919050565b7f455243373231456e756d657261626c653a20676c6f62616c20696e646578206f60008201527f7574206f6620626f756e64730000000000000000000000000000000000000000602082015250565b60006127b3602c83611f63565b91506127be82612757565b604082019050919050565b600060208201905081810360008301526127e2816127a6565b9050919050565b7f4e487b7100000000000000000000000000000000000000000000000000000000600052603260045260246000fd5b7f4552433732313a20696e76616c696420746f6b656e2049440000000000000000600082015250565b600061284e601883611f63565b915061285982612818565b602082019050919050565b6000602082019050818103600083015261287d81612841565b9050919050565b7f4552433732313a2061646472657373207a65726f206973206e6f74206120766160008201527f6c6964206f776e65720000000000000000000000000000000000000000000000602082015250565b60006128e0602983611f63565b91506128eb82612884565b604082019050919050565b6000602082019050818103600083015261290f816128d3565b9050919050565b600081905092915050565b600061292c82611f58565b6129368185612916565b9350612946818560208601611f74565b80840191505092915050565b600061295e8285612921565b915061296a8284612921565b91508190509392505050565b7f4552433732313a206d696e7420746f20746865207a65726f2061646472657373600082015250565b60006129ac602083611f63565b91506129b782612976565b602082019050919050565b600060208201905081810360008301526129db8161299f565b9050919050565b7f4552433732313a20746f6b656e20616c7265616479206d696e74656400000000600082015250565b6000612a18601c83611f63565b9150612a23826129e2565b602082019050919050565b60006020820190508181036000830152612a4781612a0b565b9050919050565b7f4552433732313a207472616e736665722066726f6d20696e636f72726563742060008201527f6f776e6572000000000000000000000000000000000000000000000000000000602082015250565b6000612aaa602583611f63565b9150612ab582612a4e565b604082019050919050565b60006020820190508181036000830152612ad981612a9d565b9050919050565b7f4552433732313a207472616e7366657220746f20746865207a65726f2061646460008201527f7265737300000000000000000000000000000000000000000000000000000000602082015250565b6000612b3c602483611f63565b9150612b4782612ae0565b604082019050919050565b60006020820190508181036000830152612b6b81612b2f565b9050919050565b7f4552433732313a20617070726f766520746f2063616c6c657200000000000000600082015250565b6000612ba8601983611f63565b9150612bb382612b72565b602082019050919050565b60006020820190508181036000830152612bd781612b9b565b9050919050565b7f4552433732313a207472616e7366657220746f206e6f6e20455243373231526560008201527f63656976657220696d706c656d656e7465720000000000000000000000000000602082015250565b6000612c3a603283611f63565b9150612c4582612bde565b604082019050919050565b60006020820190508181036000830152612c6981612c2d565b9050919050565b7f4e487b7100000000000000000000000000000000000000000000000000000000600052601260045260246000fd5b7f455243373231456e756d657261626c653a20636f6e736563757469766520747260008201527f616e7366657273206e6f7420737570706f727465640000000000000000000000602082015250565b6000612cfb603583611f63565b9150612d0682612c9f565b604082019050919050565b60006020820190508181036000830152612d2a81612cee565b9050919050565b600081519050919050565b600082825260208201905092915050565b6000612d5882612d31565b612d628185612d3c565b9350612d72818560208601611f74565b612d7b81611f9e565b840191505092915050565b6000608082019050612d9b600083018761209f565b612da8602083018661209f565b612db56040830185612135565b8181036060830152612dc78184612d4d565b905095945050505050565b600081519050612de181611ec9565b92915050565b600060208284031215612dfd57612dfc611e93565b5b6000612e0b84828501612dd2565b91505092915050565b7f4e487b7100000000000000000000000000000000000000000000000000000000600052601160045260246000fd5b6000612e4e8261200a565b9150612e598361200a565b9250828203905081811115612e7157612e70612e14565b5b92915050565b7f4e487b7100000000000000000000000000000000000000000000000000000000600052603160045260246000fdfea26469706673582212206053a674f193869a0f92bedc6c624f9b291ed428137d4ac2b5d6b0e587cd22f264736f6c63430008120033",
  "linkReferences": {},
  "deployedLinkReferences": {}
}