{
  "_format": "hh-sol-artifact-1",
  "contractName": "ARtoken",
  "sourceName": "contracts/ARtoken.sol",
  "abi": [
    {
      "inputs": [],
      "stateMutability": "nonpayable",
      "type": "constructor"
    },
    {
      "anonymous": false,
      "inputs": [
        {
          "indexed": true,
          "internalType": "address",
          "name": "owner",
          "type": "address"
        },
        {
          "indexed": true,
          "internalType": "address",
          "name": "approved",
          "type": "address"
        },
        {
          "indexed": true,
          "internalType": "uint256",
          "name": "tokenId",
          "type": "uint256"
        }
      ],
      "name": "Approval",
      "type": "event"
    },
    {
      "anonymous": false,
      "inputs": [
        {
          "indexed": true,
          "internalType": "address",
          "name": "owner",
          "type": "address"
        },
        {
          "indexed": true,
          "internalType": "address",
          "name": "operator",
          "type": "address"
        },
        {
          "indexed": false,
          "internalType": "bool",
          "name": "approved",
          "type": "bool"
        }
      ],
      "name": "ApprovalForAll",
      "type": "event"
    },
    {
      "anonymous": false,
      "inputs": [
        {
          "indexed": true,
          "internalType": "address",
          "name": "from",
          "type": "address"
        },
        {
          "indexed": true,
          "internalType": "address",
          "name": "to",
          "type": "address"
        },
        {
          "indexed": true,
          "internalType": "uint256",
          "name": "tokenId",
          "type": "uint256"
        }
      ],
      "name": "Transfer",
      "type": "event"
    },
    {
      "inputs": [
        {
          "internalType": "address",
          "name": "to",
          "type": "address"
        },
        {
          "internalType": "uint256",
          "name": "tokenId",
          "type": "uint256"
        }
      ],
      "name": "approve",
      "outputs": [],
      "stateMutability": "nonpayable",
      "type": "function"
    },
    {
      "inputs": [
        {
          "internalType": "address",
          "name": "owner",
          "type": "address"
        }
      ],
      "name": "balanceOf",
      "outputs": [
        {
          "internalType": "uint256",
          "name": "",
          "type": "uint256"
        }
      ],
      "stateMutability": "view",
      "type": "function"
    },
    {
      "inputs": [
        {
          "internalType": "uint256",
          "name": "tokenId",
          "type": "uint256"
        }
      ],
      "name": "getApproved",
      "outputs": [
        {
          "internalType": "address",
          "name": "",
          "type": "address"
        }
      ],
      "stateMutability": "view",
      "type": "function"
    },
    {
      "inputs": [
        {
          "internalType": "address",
          "name": "owner",
          "type": "address"
        },
        {
          "internalType": "address",
          "name": "operator",
          "type": "address"
        }
      ],
      "name": "isApprovedForAll",
      "outputs": [
        {
          "internalType": "bool",
          "name": "",
          "type": "bool"
        }
      ],
      "stateMutability": "view",
      "type": "function"
    },
    {
      "inputs": [
        {
          "internalType": "uint256",
          "name": "tokenId",
          "type": "uint256"
        }
      ],
      "name": "mint",
      "outputs": [],
      "stateMutability": "nonpayable",
      "type": "function"
    },
    {
      "inputs": [],
      "name": "name",
      "outputs": [
        {
          "internalType": "string",
          "name": "",
          "type": "string"
        }
      ],
      "stateMutability": "view",
      "type": "function"
    },
    {
      "inputs": [
        {
          "internalType": "uint256",
          "name": "tokenId",
          "type": "uint256"
        }
      ],
      "name": "ownerOf",
      "outputs": [
        {
          "internalType": "address",
          "name": "",
          "type": "address"
        }
      ],
      "stateMutability": "view",
      "type": "function"
    },
    {
      "inputs": [
        {
          "internalType": "address",
          "name": "from",
          "type": "address"
        },
        {
          "internalType": "address",
          "name": "to",
          "type": "address"
        },
        {
          "internalType": "uint256",
          "name": "tokenId",
          "type": "uint256"
        }
      ],
      "name": "safeTransferFrom",
      "outputs": [],
      "stateMutability": "nonpayable",
      "type": "function"
    },
    {
      "inputs": [
        {
          "internalType": "address",
          "name": "from",
          "type": "address"
        },
        {
          "internalType": "address",
          "name": "to",
          "type": "address"
        },
        {
          "internalType": "uint256",
          "name": "tokenId",
          "type": "uint256"
        },
        {
          "internalType": "bytes",
          "name": "data",
          "type": "bytes"
        }
      ],
      "name": "safeTransferFrom",
      "outputs": [],
      "stateMutability": "nonpayable",
      "type": "function"
    },
    {
      "inputs": [
        {
          "internalType": "address",
          "name": "operator",
          "type": "address"
        },
        {
          "internalType": "bool",
          "name": "approved",
          "type": "bool"
        }
      ],
      "name": "setApprovalForAll",
      "outputs": [],
      "stateMutability": "nonpayable",
      "type": "function"
    },
    {
      "inputs": [
        {
          "internalType": "bytes4",
          "name": "interfaceId",
          "type": "bytes4"
        }
      ],
      "name": "supportsInterface",
      "outputs": [
        {
          "internalType": "bool",
          "name": "",
          "type": "bool"
        }
      ],
      "stateMutability": "view",
      "type": "function"
    },
    {
      "inputs": [],
      "name": "symbol",
      "outputs": [
        {
          "internalType": "string",
          "name": "",
          "type": "string"
        }
      ],
      "stateMutability": "view",
      "type": "function"
    },
    {
      "inputs": [
        {
          "internalType": "uint256",
          "name": "index",
          "type": "uint256"
        }
      ],
      "name": "tokenByIndex",
      "outputs": [
        {
          "internalType": "uint256",
          "name": "",
          "type": "uint256"
        }
      ],
      "stateMutability": "view",
      "type": "function"
    },
    {
      "inputs": [
        {
          "internalType": "address",
          "name": "owner",
          "type": "address"
        },
        {
          "internalType": "uint256",
          "name": "index",
          "type": "uint256"
        }
      ],
      "name": "tokenOfOwnerByIndex",
      "outputs": [
        {
          "internalType": "uint256",
          "name": "",
          "type": "uint256"
        }
      ],
      "stateMutability": "view",
      "type": "function"
    },
    {
      "inputs": [
        {
          "internalType": "uint256",
          "name": "tokenId",
          "type": "uint256"
        }
      ],
      "name": "tokenURI",
      "outputs": [
        {
          "internalType": "string",
          "name": "",
          "type": "string"
        }
      ],
      "stateMutability": "view",
      "type": "function"
    },
    {
      "inputs": [],
      "name": "totalSupply",
      "outputs": [
        {
          "internalType": "uint256",
          "name": "",
          "type": "uint256"
        }
      ],
      "stateMutability": "view",
      "type": "function"
    },
    {
      "inputs": [
        {
          "internalType": "address",
          "name": "from",
          "type": "address"
        },
        {
          "internalType": "address",
          "name": "to",
          "type": "address"
        },
        {
          "internalType": "uint256",
          "name": "tokenId",
          "type": "uint256"
        }
      ],
      "name": "transferFrom",
      "outputs": [],
      "stateMutability": "nonpayable",
      "type": "function"
    }
  ],
  "bytecode": "0x60806040523480156200001157600080fd5b506040518060400160405280600a81526020017f43727970746f44657673000000000000000000000000000000000000000000008152506040518060400160405280600281526020017f415200000000000000000000000000000000000000000000000000000000000081525081600090816200008f919062000324565b508060019081620000a1919062000324565b5050506200040b565b600081519050919050565b7f4e487b7100000000000000000000000000000000000000000000000000000000600052604160045260246000fd5b7f4e487b7100000000000000000000000000000000000000000000000000000000600052602260045260246000fd5b600060028204905060018216806200012c57607f821691505b602082108103620001425762000141620000e4565b5b50919050565b60008190508160005260206000209050919050565b60006020601f8301049050919050565b600082821b905092915050565b600060088302620001ac7fffffffffffffffffffffffffffffffffffffffffffffffffffffffffffffffff826200016d565b620001b886836200016d565b95508019841693508086168417925050509392505050565b6000819050919050565b6000819050919050565b600062000205620001ff620001f984620001d0565b620001da565b620001d0565b9050919050565b6000819050919050565b6200022183620001e4565b6200023962000230826200020c565b8484546200017a565b825550505050565b600090565b6200025062000241565b6200025d81848462000216565b505050565b5b8181101562000285576200027960008262000246565b60018101905062000263565b5050565b601f821115620002d4576200029e8162000148565b620002a9846200015d565b81016020851015620002b9578190505b620002d1620002c8856200015d565b83018262000262565b50505b505050565b600082821c905092915050565b6000620002f960001984600802620002d9565b1980831691505092915050565b6000620003148383620002e6565b9150826002028217905092915050565b6200032f82620000aa565b67ffffffffffffffff8111156200034b576200034a620000b5565b5b62000357825462000113565b6200036482828562000289565b600060209050601f8311600181146200039c576000841562000387578287015190505b62000393858262000306565b86555062000403565b601f198416620003ac8662000148565b60005b82811015620003d657848901518255600182019150602085019450602081019050620003af565b86831015620003f65784890151620003f2601f891682620002e6565b8355505b6001600288020188555050505b505050505050565b612de9806200041b6000396000f3fe608060405234801561001057600080fd5b506004361061010b5760003560e01c80634f6ccce7116100a2578063a0712d6811610071578063a0712d68146102de578063a22cb465146102fa578063b88d4fde14610316578063c87b56dd14610332578063e985e9c5146103625761010b565b80634f6ccce7146102305780636352211e1461026057806370a082311461029057806395d89b41146102c05761010b565b806318160ddd116100de57806318160ddd146101aa57806323b872dd146101c85780632f745c59146101e457806342842e0e146102145761010b565b806301ffc9a71461011057806306fdde0314610140578063081812fc1461015e578063095ea7b31461018e575b600080fd5b61012a60048036038101906101259190611e6e565b610392565b6040516101379190611eb6565b60405180910390f35b61014861040c565b6040516101559190611f61565b60405180910390f35b61017860048036038101906101739190611fb9565b61049e565b6040516101859190612027565b60405180910390f35b6101a860048036038101906101a3919061206e565b6104e4565b005b6101b26105fb565b6040516101bf91906120bd565b60405180910390f35b6101e260048036038101906101dd91906120d8565b610608565b005b6101fe60048036038101906101f9919061206e565b610668565b60405161020b91906120bd565b60405180910390f35b61022e600480360381019061022991906120d8565b61070d565b005b61024a60048036038101906102459190611fb9565b61072d565b60405161025791906120bd565b60405180910390f35b61027a60048036038101906102759190611fb9565b61079e565b6040516102879190612027565b60405180910390f35b6102aa60048036038101906102a5919061212b565b610824565b6040516102b791906120bd565b60405180910390f35b6102c86108db565b6040516102d59190611f61565b60405180910390f35b6102f860048036038101906102f39190611fb9565b61096d565b005b610314600480360381019061030f9190612184565b61097a565b005b610330600480360381019061032b91906122f9565b610990565b005b61034c60048036038101906103479190611fb9565b6109f2565b6040516103599190611f61565b60405180910390f35b61037c6004803603810190610377919061237c565b610a5a565b6040516103899190611eb6565b60405180910390f35b60007f780e9d63000000000000000000000000000000000000000000000000000000007bffffffffffffffffffffffffffffffffffffffffffffffffffffffff1916827bffffffffffffffffffffffffffffffffffffffffffffffffffffffff19161480610405575061040482610aee565b5b9050919050565b60606000805461041b906123eb565b80601f0160208091040260200160405190810160405280929190818152602001828054610447906123eb565b80156104945780601f1061046957610100808354040283529160200191610494565b820191906000526020600020905b81548152906001019060200180831161047757829003601f168201915b5050505050905090565b60006104a982610bd0565b6004600083815260200190815260200160002060009054906101000a900473ffffffffffffffffffffffffffffffffffffffff169050919050565b60006104ef8261079e565b90508073ffffffffffffffffffffffffffffffffffffffff168373ffffffffffffffffffffffffffffffffffffffff160361055f576040517f08c379a00000000000000000000000000000000000000000000000000000000081526004016105569061248e565b60405180910390fd5b8073ffffffffffffffffffffffffffffffffffffffff1661057e610c1b565b73ffffffffffffffffffffffffffffffffffffffff1614806105ad57506105ac816105a7610c1b565b610a5a565b5b6105ec576040517f08c379a00000000000000000000000000000000000000000000000000000000081526004016105e390612520565b60405180910390fd5b6105f68383610c23565b505050565b6000600880549050905090565b610619610613610c1b565b82610cdc565b610658576040517f08c379a000000000000000000000000000000000000000000000000000000000815260040161064f906125b2565b60405180910390fd5b610663838383610d71565b505050565b600061067383610824565b82106106b4576040517f08c379a00000000000000000000000000000000000000000000000000000000081526004016106ab90612644565b60405180910390fd5b600660008473ffffffffffffffffffffffffffffffffffffffff1673ffffffffffffffffffffffffffffffffffffffff168152602001908152602001600020600083815260200190815260200160002054905092915050565b61072883838360405180602001604052806000815250610990565b505050565b60006107376105fb565b8210610778576040517f08c379a000000000000000000000000000000000000000000000000000000000815260040161076f906126d6565b60405180910390fd5b6008828154811061078c5761078b6126f6565b5b90600052602060002001549050919050565b6000806107aa8361106a565b9050600073ffffffffffffffffffffffffffffffffffffffff168173ffffffffffffffffffffffffffffffffffffffff160361081b576040517f08c379a000000000000000000000000000000000000000000000000000000000815260040161081290612771565b60405180910390fd5b80915050919050565b60008073ffffffffffffffffffffffffffffffffffffffff168273ffffffffffffffffffffffffffffffffffffffff1603610894576040517f08c379a000000000000000000000000000000000000000000000000000000000815260040161088b90612803565b60405180910390fd5b600360008373ffffffffffffffffffffffffffffffffffffffff1673ffffffffffffffffffffffffffffffffffffffff168152602001908152602001600020549050919050565b6060600180546108ea906123eb565b80601f0160208091040260200160405190810160405280929190818152602001828054610916906123eb565b80156109635780601f1061093857610100808354040283529160200191610963565b820191906000526020600020905b81548152906001019060200180831161094657829003601f168201915b5050505050905090565b61097733826110a7565b50565b61098c610985610c1b565b83836110c5565b5050565b6109a161099b610c1b565b83610cdc565b6109e0576040517f08c379a00000000000000000000000000000000000000000000000000000000081526004016109d7906125b2565b60405180910390fd5b6109ec84848484611231565b50505050565b60606109fd82610bd0565b6000610a0761128d565b90506000815111610a275760405180602001604052806000815250610a52565b80610a31846112a4565b604051602001610a4292919061285f565b6040516020818303038152906040525b915050919050565b6000600560008473ffffffffffffffffffffffffffffffffffffffff1673ffffffffffffffffffffffffffffffffffffffff16815260200190815260200160002060008373ffffffffffffffffffffffffffffffffffffffff1673ffffffffffffffffffffffffffffffffffffffff16815260200190815260200160002060009054906101000a900460ff16905092915050565b60007f80ac58cd000000000000000000000000000000000000000000000000000000007bffffffffffffffffffffffffffffffffffffffffffffffffffffffff1916827bffffffffffffffffffffffffffffffffffffffffffffffffffffffff19161480610bb957507f5b5e139f000000000000000000000000000000000000000000000000000000007bffffffffffffffffffffffffffffffffffffffffffffffffffffffff1916827bffffffffffffffffffffffffffffffffffffffffffffffffffffffff1916145b80610bc95750610bc882611372565b5b9050919050565b610bd9816113dc565b610c18576040517f08c379a0000000000000000000000000000000000000000000000000000000008152600401610c0f90612771565b60405180910390fd5b50565b600033905090565b816004600083815260200190815260200160002060006101000a81548173ffffffffffffffffffffffffffffffffffffffff021916908373ffffffffffffffffffffffffffffffffffffffff160217905550808273ffffffffffffffffffffffffffffffffffffffff16610c968361079e565b73ffffffffffffffffffffffffffffffffffffffff167f8c5be1e5ebec7d5bd14f71427d1e84f3dd0314c0f7b2291e5b200ac8c7c3b92560405160405180910390a45050565b600080610ce88361079e565b90508073ffffffffffffffffffffffffffffffffffffffff168473ffffffffffffffffffffffffffffffffffffffff161480610d2a5750610d298185610a5a565b5b80610d6857508373ffffffffffffffffffffffffffffffffffffffff16610d508461049e565b73ffffffffffffffffffffffffffffffffffffffff16145b91505092915050565b8273ffffffffffffffffffffffffffffffffffffffff16610d918261079e565b73ffffffffffffffffffffffffffffffffffffffff1614610de7576040517f08c379a0000000000000000000000000000000000000000000000000000000008152600401610dde906128f5565b60405180910390fd5b600073ffffffffffffffffffffffffffffffffffffffff168273ffffffffffffffffffffffffffffffffffffffff1603610e56576040517f08c379a0000000000000000000000000000000000000000000000000000000008152600401610e4d90612987565b60405180910390fd5b610e63838383600161141d565b8273ffffffffffffffffffffffffffffffffffffffff16610e838261079e565b73ffffffffffffffffffffffffffffffffffffffff1614610ed9576040517f08c379a0000000000000000000000000000000000000000000000000000000008152600401610ed0906128f5565b60405180910390fd5b6004600082815260200190815260200160002060006101000a81549073ffffffffffffffffffffffffffffffffffffffff02191690556001600360008573ffffffffffffffffffffffffffffffffffffffff1673ffffffffffffffffffffffffffffffffffffffff168152602001908152602001600020600082825403925050819055506001600360008473ffffffffffffffffffffffffffffffffffffffff1673ffffffffffffffffffffffffffffffffffffffff16815260200190815260200160002060008282540192505081905550816002600083815260200190815260200160002060006101000a81548173ffffffffffffffffffffffffffffffffffffffff021916908373ffffffffffffffffffffffffffffffffffffffff160217905550808273ffffffffffffffffffffffffffffffffffffffff168473ffffffffffffffffffffffffffffffffffffffff167fddf252ad1be2c89b69c2b068fc378daa952ba7f163c4a11628f55a4df523b3ef60405160405180910390a4611065838383600161157b565b505050565b60006002600083815260200190815260200160002060009054906101000a900473ffffffffffffffffffffffffffffffffffffffff169050919050565b6110c1828260405180602001604052806000815250611581565b5050565b8173ffffffffffffffffffffffffffffffffffffffff168373ffffffffffffffffffffffffffffffffffffffff1603611133576040517f08c379a000000000000000000000000000000000000000000000000000000000815260040161112a906129f3565b60405180910390fd5b80600560008573ffffffffffffffffffffffffffffffffffffffff1673ffffffffffffffffffffffffffffffffffffffff16815260200190815260200160002060008473ffffffffffffffffffffffffffffffffffffffff1673ffffffffffffffffffffffffffffffffffffffff16815260200190815260200160002060006101000a81548160ff0219169083151502179055508173ffffffffffffffffffffffffffffffffffffffff168373ffffffffffffffffffffffffffffffffffffffff167f17307eab39ab6107e8899845ad3d59bd9653f200f220920489ca2b5937696c31836040516112249190611eb6565b60405180910390a3505050565b61123c848484610d71565b611248848484846115dc565b611287576040517f08c379a000000000000000000000000000000000000000000000000000000000815260040161127e90612a85565b60405180910390fd5b50505050565b606060405180602001604052806000815250905090565b6060600060016112b384611763565b01905060008167ffffffffffffffff8111156112d2576112d16121ce565b5b6040519080825280601f01601f1916602001820160405280156113045781602001600182028036833780820191505090505b509050600082602001820190505b600115611367578080600190039150507f3031323334353637383961626364656600000000000000000000000000000000600a86061a8153600a858161135b5761135a612aa5565b5b04945060008503611312575b819350505050919050565b60007f01ffc9a7000000000000000000000000000000000000000000000000000000007bffffffffffffffffffffffffffffffffffffffffffffffffffffffff1916827bffffffffffffffffffffffffffffffffffffffffffffffffffffffff1916149050919050565b60008073ffffffffffffffffffffffffffffffffffffffff166113fe8361106a565b73ffffffffffffffffffffffffffffffffffffffff1614159050919050565b611429848484846118b6565b600181111561146d576040517f08c379a000000000000000000000000000000000000000000000000000000000815260040161146490612b46565b60405180910390fd5b6000829050600073ffffffffffffffffffffffffffffffffffffffff168573ffffffffffffffffffffffffffffffffffffffff16036114b4576114af816118bc565b6114f3565b8373ffffffffffffffffffffffffffffffffffffffff168573ffffffffffffffffffffffffffffffffffffffff16146114f2576114f18582611905565b5b5b600073ffffffffffffffffffffffffffffffffffffffff168473ffffffffffffffffffffffffffffffffffffffff16036115355761153081611a72565b611574565b8473ffffffffffffffffffffffffffffffffffffffff168473ffffffffffffffffffffffffffffffffffffffff1614611573576115728482611b43565b5b5b5050505050565b50505050565b61158b8383611bc2565b61159860008484846115dc565b6115d7576040517f08c379a00000000000000000000000000000000000000000000000000000000081526004016115ce90612a85565b60405180910390fd5b505050565b60006115fd8473ffffffffffffffffffffffffffffffffffffffff16611ddf565b15611756578373ffffffffffffffffffffffffffffffffffffffff1663150b7a02611626610c1b565b8786866040518563ffffffff1660e01b81526004016116489493929190612bbb565b6020604051808303816000875af192505050801561168457506040513d601f19601f820116820180604052508101906116819190612c1c565b60015b611706573d80600081146116b4576040519150601f19603f3d011682016040523d82523d6000602084013e6116b9565b606091505b5060008151036116fe576040517f08c379a00000000000000000000000000000000000000000000000000000000081526004016116f590612a85565b60405180910390fd5b805181602001fd5b63150b7a0260e01b7bffffffffffffffffffffffffffffffffffffffffffffffffffffffff1916817bffffffffffffffffffffffffffffffffffffffffffffffffffffffff19161491505061175b565b600190505b949350505050565b600080600090507a184f03e93ff9f4daa797ed6e38ed64bf6a1f01000000000000000083106117c1577a184f03e93ff9f4daa797ed6e38ed64bf6a1f01000000000000000083816117b7576117b6612aa5565b5b0492506040810190505b6d04ee2d6d415b85acef810000000083106117fe576d04ee2d6d415b85acef810000000083816117f4576117f3612aa5565b5b0492506020810190505b662386f26fc10000831061182d57662386f26fc10000838161182357611822612aa5565b5b0492506010810190505b6305f5e1008310611856576305f5e100838161184c5761184b612aa5565b5b0492506008810190505b612710831061187b57612710838161187157611870612aa5565b5b0492506004810190505b6064831061189e576064838161189457611893612aa5565b5b0492506002810190505b600a83106118ad576001810190505b80915050919050565b50505050565b6008805490506009600083815260200190815260200160002081905550600881908060018154018082558091505060019003906000526020600020016000909190919091505550565b6000600161191284610824565b61191c9190612c78565b9050600060076000848152602001908152602001600020549050818114611a01576000600660008673ffffffffffffffffffffffffffffffffffffffff1673ffffffffffffffffffffffffffffffffffffffff168152602001908152602001600020600084815260200190815260200160002054905080600660008773ffffffffffffffffffffffffffffffffffffffff1673ffffffffffffffffffffffffffffffffffffffff168152602001908152602001600020600084815260200190815260200160002081905550816007600083815260200190815260200160002081905550505b6007600084815260200190815260200160002060009055600660008573ffffffffffffffffffffffffffffffffffffffff1673ffffffffffffffffffffffffffffffffffffffff16815260200190815260200160002060008381526020019081526020016000206000905550505050565b60006001600880549050611a869190612c78565b9050600060096000848152602001908152602001600020549050600060088381548110611ab657611ab56126f6565b5b906000526020600020015490508060088381548110611ad857611ad76126f6565b5b906000526020600020018190555081600960008381526020019081526020016000208190555060096000858152602001908152602001600020600090556008805480611b2757611b26612cac565b5b6001900381819060005260206000200160009055905550505050565b6000611b4e83610824565b905081600660008573ffffffffffffffffffffffffffffffffffffffff1673ffffffffffffffffffffffffffffffffffffffff168152602001908152602001600020600083815260200190815260200160002081905550806007600084815260200190815260200160002081905550505050565b600073ffffffffffffffffffffffffffffffffffffffff168273ffffffffffffffffffffffffffffffffffffffff1603611c31576040517f08c379a0000000000000000000000000000000000000000000000000000000008152600401611c2890612d27565b60405180910390fd5b611c3a816113dc565b15611c7a576040517f08c379a0000000000000000000000000000000000000000000000000000000008152600401611c7190612d93565b60405180910390fd5b611c8860008383600161141d565b611c91816113dc565b15611cd1576040517f08c379a0000000000000000000000000000000000000000000000000000000008152600401611cc890612d93565b60405180910390fd5b6001600360008473ffffffffffffffffffffffffffffffffffffffff1673ffffffffffffffffffffffffffffffffffffffff16815260200190815260200160002060008282540192505081905550816002600083815260200190815260200160002060006101000a81548173ffffffffffffffffffffffffffffffffffffffff021916908373ffffffffffffffffffffffffffffffffffffffff160217905550808273ffffffffffffffffffffffffffffffffffffffff16600073ffffffffffffffffffffffffffffffffffffffff167fddf252ad1be2c89b69c2b068fc378daa952ba7f163c4a11628f55a4df523b3ef60405160405180910390a4611ddb60008383600161157b565b5050565b6000808273ffffffffffffffffffffffffffffffffffffffff163b119050919050565b6000604051905090565b600080fd5b600080fd5b60007fffffffff0000000000000000000000000000000000000000000000000000000082169050919050565b611e4b81611e16565b8114611e5657600080fd5b50565b600081359050611e6881611e42565b92915050565b600060208284031215611e8457611e83611e0c565b5b6000611e9284828501611e59565b91505092915050565b60008115159050919050565b611eb081611e9b565b82525050565b6000602082019050611ecb6000830184611ea7565b92915050565b600081519050919050565b600082825260208201905092915050565b60005b83811015611f0b578082015181840152602081019050611ef0565b60008484015250505050565b6000601f19601f8301169050919050565b6000611f3382611ed1565b611f3d8185611edc565b9350611f4d818560208601611eed565b611f5681611f17565b840191505092915050565b60006020820190508181036000830152611f7b8184611f28565b905092915050565b6000819050919050565b611f9681611f83565b8114611fa157600080fd5b50565b600081359050611fb381611f8d565b92915050565b600060208284031215611fcf57611fce611e0c565b5b6000611fdd84828501611fa4565b91505092915050565b600073ffffffffffffffffffffffffffffffffffffffff82169050919050565b600061201182611fe6565b9050919050565b61202181612006565b82525050565b600060208201905061203c6000830184612018565b92915050565b61204b81612006565b811461205657600080fd5b50565b60008135905061206881612042565b92915050565b6000806040838503121561208557612084611e0c565b5b600061209385828601612059565b92505060206120a485828601611fa4565b9150509250929050565b6120b781611f83565b82525050565b60006020820190506120d260008301846120ae565b92915050565b6000806000606084860312156120f1576120f0611e0c565b5b60006120ff86828701612059565b935050602061211086828701612059565b925050604061212186828701611fa4565b9150509250925092565b60006020828403121561214157612140611e0c565b5b600061214f84828501612059565b91505092915050565b61216181611e9b565b811461216c57600080fd5b50565b60008135905061217e81612158565b92915050565b6000806040838503121561219b5761219a611e0c565b5b60006121a985828601612059565b92505060206121ba8582860161216f565b9150509250929050565b600080fd5b600080fd5b7f4e487b7100000000000000000000000000000000000000000000000000000000600052604160045260246000fd5b61220682611f17565b810181811067ffffffffffffffff82111715612225576122246121ce565b5b80604052505050565b6000612238611e02565b905061224482826121fd565b919050565b600067ffffffffffffffff821115612264576122636121ce565b5b61226d82611f17565b9050602081019050919050565b82818337600083830152505050565b600061229c61229784612249565b61222e565b9050828152602081018484840111156122b8576122b76121c9565b5b6122c384828561227a565b509392505050565b600082601f8301126122e0576122df6121c4565b5b81356122f0848260208601612289565b91505092915050565b6000806000806080858703121561231357612312611e0c565b5b600061232187828801612059565b945050602061233287828801612059565b935050604061234387828801611fa4565b925050606085013567ffffffffffffffff81111561236457612363611e11565b5b612370878288016122cb565b91505092959194509250565b6000806040838503121561239357612392611e0c565b5b60006123a185828601612059565b92505060206123b285828601612059565b9150509250929050565b7f4e487b7100000000000000000000000000000000000000000000000000000000600052602260045260246000fd5b6000600282049050600182168061240357607f821691505b602082108103612416576124156123bc565b5b50919050565b7f4552433732313a20617070726f76616c20746f2063757272656e74206f776e6560008201527f7200000000000000000000000000000000000000000000000000000000000000602082015250565b6000612478602183611edc565b91506124838261241c565b604082019050919050565b600060208201905081810360008301526124a78161246b565b9050919050565b7f4552433732313a20617070726f76652063616c6c6572206973206e6f7420746f60008201527f6b656e206f776e6572206f7220617070726f76656420666f7220616c6c000000602082015250565b600061250a603d83611edc565b9150612515826124ae565b604082019050919050565b60006020820190508181036000830152612539816124fd565b9050919050565b7f4552433732313a2063616c6c6572206973206e6f7420746f6b656e206f776e6560008201527f72206f7220617070726f76656400000000000000000000000000000000000000602082015250565b600061259c602d83611edc565b91506125a782612540565b604082019050919050565b600060208201905081810360008301526125cb8161258f565b9050919050565b7f455243373231456e756d657261626c653a206f776e657220696e646578206f7560008201527f74206f6620626f756e6473000000000000000000000000000000000000000000602082015250565b600061262e602b83611edc565b9150612639826125d2565b604082019050919050565b6000602082019050818103600083015261265d81612621565b9050919050565b7f455243373231456e756d657261626c653a20676c6f62616c20696e646578206f60008201527f7574206f6620626f756e64730000000000000000000000000000000000000000602082015250565b60006126c0602c83611edc565b91506126cb82612664565b604082019050919050565b600060208201905081810360008301526126ef816126b3565b9050919050565b7f4e487b7100000000000000000000000000000000000000000000000000000000600052603260045260246000fd5b7f4552433732313a20696e76616c696420746f6b656e2049440000000000000000600082015250565b600061275b601883611edc565b915061276682612725565b602082019050919050565b6000602082019050818103600083015261278a8161274e565b9050919050565b7f4552433732313a2061646472657373207a65726f206973206e6f74206120766160008201527f6c6964206f776e65720000000000000000000000000000000000000000000000602082015250565b60006127ed602983611edc565b91506127f882612791565b604082019050919050565b6000602082019050818103600083015261281c816127e0565b9050919050565b600081905092915050565b600061283982611ed1565b6128438185612823565b9350612853818560208601611eed565b80840191505092915050565b600061286b828561282e565b9150612877828461282e565b91508190509392505050565b7f4552433732313a207472616e736665722066726f6d20696e636f72726563742060008201527f6f776e6572000000000000000000000000000000000000000000000000000000602082015250565b60006128df602583611edc565b91506128ea82612883565b604082019050919050565b6000602082019050818103600083015261290e816128d2565b9050919050565b7f4552433732313a207472616e7366657220746f20746865207a65726f2061646460008201527f7265737300000000000000000000000000000000000000000000000000000000602082015250565b6000612971602483611edc565b915061297c82612915565b604082019050919050565b600060208201905081810360008301526129a081612964565b9050919050565b7f4552433732313a20617070726f766520746f2063616c6c657200000000000000600082015250565b60006129dd601983611edc565b91506129e8826129a7565b602082019050919050565b60006020820190508181036000830152612a0c816129d0565b9050919050565b7f4552433732313a207472616e7366657220746f206e6f6e20455243373231526560008201527f63656976657220696d706c656d656e7465720000000000000000000000000000602082015250565b6000612a6f603283611edc565b9150612a7a82612a13565b604082019050919050565b60006020820190508181036000830152612a9e81612a62565b9050919050565b7f4e487b7100000000000000000000000000000000000000000000000000000000600052601260045260246000fd5b7f455243373231456e756d657261626c653a20636f6e736563757469766520747260008201527f616e7366657273206e6f7420737570706f727465640000000000000000000000602082015250565b6000612b30603583611edc565b9150612b3b82612ad4565b604082019050919050565b60006020820190508181036000830152612b5f81612b23565b9050919050565b600081519050919050565b600082825260208201905092915050565b6000612b8d82612b66565b612b978185612b71565b9350612ba7818560208601611eed565b612bb081611f17565b840191505092915050565b6000608082019050612bd06000830187612018565b612bdd6020830186612018565b612bea60408301856120ae565b8181036060830152612bfc8184612b82565b905095945050505050565b600081519050612c1681611e42565b92915050565b600060208284031215612c3257612c31611e0c565b5b6000612c4084828501612c07565b91505092915050565b7f4e487b7100000000000000000000000000000000000000000000000000000000600052601160045260246000fd5b6000612c8382611f83565b9150612c8e83611f83565b9250828203905081811115612ca657612ca5612c49565b5b92915050565b7f4e487b7100000000000000000000000000000000000000000000000000000000600052603160045260246000fd5b7f4552433732313a206d696e7420746f20746865207a65726f2061646472657373600082015250565b6000612d11602083611edc565b9150612d1c82612cdb565b602082019050919050565b60006020820190508181036000830152612d4081612d04565b9050919050565b7f4552433732313a20746f6b656e20616c7265616479206d696e74656400000000600082015250565b6000612d7d601c83611edc565b9150612d8882612d47565b602082019050919050565b60006020820190508181036000830152612dac81612d70565b905091905056fea26469706673582212207f9fdbee77da4066e13434f949d4a77367ea46f40d58cf7fb28a8c8616e660da64736f6c63430008120033",
  "linkReferences": {},
  "deployedLinkReferences": {}
}