{
  "_format": "hh-sol-artifact-1",
  "contractName": "DAO",
  "sourceName": "contracts/Dao.sol",
  "abi": [
    {
      "inputs": [
        {
          "internalType": "address",
          "name": "_nftMarketplace",
          "type": "address"
        },
        {
          "internalType": "address",
          "name": "_artoken",
          "type": "address"
        },
        {
          "internalType": "address",
          "name": "_daotoken",
          "type": "address"
        }
      ],
      "stateMutability": "nonpayable",
      "type": "constructor"
    },
    {
      "anonymous": false,
      "inputs": [
        {
          "indexed": true,
          "internalType": "address",
          "name": "previousOwner",
          "type": "address"
        },
        {
          "indexed": true,
          "internalType": "address",
          "name": "newOwner",
          "type": "address"
        }
      ],
      "name": "OwnershipTransferred",
      "type": "event"
    },
    {
      "inputs": [
        {
          "internalType": "uint256",
          "name": "_tokenId",
          "type": "uint256"
        },
        {
          "internalType": "uint256",
          "name": "_deadline",
          "type": "uint256"
        }
      ],
      "name": "CreateProposal",
      "outputs": [],
      "stateMutability": "nonpayable",
      "type": "function"
    },
    {
      "inputs": [
        {
          "internalType": "uint256",
          "name": "proposalIndex",
          "type": "uint256"
        }
      ],
      "name": "executeProposal",
      "outputs": [],
      "stateMutability": "nonpayable",
      "type": "function"
    },
    {
      "inputs": [],
      "name": "getBalance",
      "outputs": [
        {
          "internalType": "uint256",
          "name": "",
          "type": "uint256"
        }
      ],
      "stateMutability": "view",
      "type": "function"
    },
    {
      "inputs": [],
      "name": "owner",
      "outputs": [
        {
          "internalType": "address",
          "name": "",
          "type": "address"
        }
      ],
      "stateMutability": "view",
      "type": "function"
    },
    {
      "inputs": [
        {
          "internalType": "uint256",
          "name": "",
          "type": "uint256"
        }
      ],
      "name": "proposals",
      "outputs": [
        {
          "internalType": "uint256",
          "name": "nftTokenId",
          "type": "uint256"
        },
        {
          "internalType": "uint256",
          "name": "deadline",
          "type": "uint256"
        },
        {
          "internalType": "uint256",
          "name": "PosVotes",
          "type": "uint256"
        },
        {
          "internalType": "uint256",
          "name": "NegVotes",
          "type": "uint256"
        },
        {
          "internalType": "bool",
          "name": "executed",
          "type": "bool"
        }
      ],
      "stateMutability": "view",
      "type": "function"
    },
    {
      "inputs": [],
      "name": "renounceOwnership",
      "outputs": [],
      "stateMutability": "nonpayable",
      "type": "function"
    },
    {
      "inputs": [],
      "name": "totalProposals",
      "outputs": [
        {
          "internalType": "uint256",
          "name": "",
          "type": "uint256"
        }
      ],
      "stateMutability": "view",
      "type": "function"
    },
    {
      "inputs": [
        {
          "internalType": "address",
          "name": "newOwner",
          "type": "address"
        }
      ],
      "name": "transferOwnership",
      "outputs": [],
      "stateMutability": "nonpayable",
      "type": "function"
    },
    {
      "inputs": [
        {
          "internalType": "uint256",
          "name": "_proposalId",
          "type": "uint256"
        },
        {
          "internalType": "bool",
          "name": "_vote",
          "type": "bool"
        }
      ],
      "name": "vote",
      "outputs": [],
      "stateMutability": "nonpayable",
      "type": "function"
    },
    {
      "inputs": [],
      "name": "withdrawEther",
      "outputs": [],
      "stateMutability": "nonpayable",
      "type": "function"
    },
    {
      "stateMutability": "payable",
      "type": "receive"
    }
  ],
  "bytecode": "0x608060405260006005553480156200001657600080fd5b50604051620019663803806200196683398181016040528101906200003c91906200025e565b6200005c620000506200012860201b60201c565b6200013060201b60201c565b82600160006101000a81548173ffffffffffffffffffffffffffffffffffffffff021916908373ffffffffffffffffffffffffffffffffffffffff16021790555081600260006101000a81548173ffffffffffffffffffffffffffffffffffffffff021916908373ffffffffffffffffffffffffffffffffffffffff16021790555080600360006101000a81548173ffffffffffffffffffffffffffffffffffffffff021916908373ffffffffffffffffffffffffffffffffffffffff160217905550505050620002ba565b600033905090565b60008060009054906101000a900473ffffffffffffffffffffffffffffffffffffffff169050816000806101000a81548173ffffffffffffffffffffffffffffffffffffffff021916908373ffffffffffffffffffffffffffffffffffffffff1602179055508173ffffffffffffffffffffffffffffffffffffffff168173ffffffffffffffffffffffffffffffffffffffff167f8be0079c531659141344cd1fd0a4f28419497f9722a3daafe3b4186f6b6457e060405160405180910390a35050565b600080fd5b600073ffffffffffffffffffffffffffffffffffffffff82169050919050565b60006200022682620001f9565b9050919050565b620002388162000219565b81146200024457600080fd5b50565b60008151905062000258816200022d565b92915050565b6000806000606084860312156200027a5762000279620001f4565b5b60006200028a8682870162000247565b93505060206200029d8682870162000247565b9250506040620002b08682870162000247565b9150509250925092565b61169c80620002ca6000396000f3fe6080604052600436106100955760003560e01c80637362377b116100595780637362377b146101765780638da5cb5b1461018d578063a78d80fc146101b8578063c9d27afe146101e3578063f2fde38b1461020c5761009c565b8063013cf08b146100a15780630d61b519146100e257806312065fe01461010b5780636638d63c14610136578063715018a61461015f5761009c565b3661009c57005b600080fd5b3480156100ad57600080fd5b506100c860048036038101906100c39190610e0a565b610235565b6040516100d9959493929190610e61565b60405180910390f35b3480156100ee57600080fd5b5061010960048036038101906101049190610e0a565b610278565b005b34801561011757600080fd5b50610120610510565b60405161012d9190610eb4565b60405180910390f35b34801561014257600080fd5b5061015d60048036038101906101589190610ecf565b610518565b005b34801561016b57600080fd5b5061017461063e565b005b34801561018257600080fd5b5061018b610652565b005b34801561019957600080fd5b506101a2610759565b6040516101af9190610f50565b60405180910390f35b3480156101c457600080fd5b506101cd610782565b6040516101da9190610eb4565b60405180910390f35b3480156101ef57600080fd5b5061020a60048036038101906102059190610f97565b610788565b005b34801561021857600080fd5b50610233600480360381019061022e9190611003565b610c02565b005b60046020528060005260406000206000915090508060000154908060010154908060020154908060030154908060040160009054906101000a900460ff16905085565b6000600360009054906101000a900473ffffffffffffffffffffffffffffffffffffffff1673ffffffffffffffffffffffffffffffffffffffff166370a08231336040518263ffffffff1660e01b81526004016102d59190610f50565b602060405180830381865afa1580156102f2573d6000803e3d6000fd5b505050506040513d601f19601f820116820180604052508101906103169190611045565b11610356576040517f08c379a000000000000000000000000000000000000000000000000000000000815260040161034d906110cf565b60405180910390fd5b600060046000838152602001908152602001600020905080600301548160020154106104ef576000600160009054906101000a900473ffffffffffffffffffffffffffffffffffffffff1673ffffffffffffffffffffffffffffffffffffffff166398d5fdca6040518163ffffffff1660e01b8152600401602060405180830381865afa1580156103eb573d6000803e3d6000fd5b505050506040513d601f19601f8201168201806040525081019061040f9190611045565b905080471015610454576040517f08c379a000000000000000000000000000000000000000000000000000000000815260040161044b9061113b565b60405180910390fd5b600160009054906101000a900473ffffffffffffffffffffffffffffffffffffffff1673ffffffffffffffffffffffffffffffffffffffff1663efef39a1666a94d74f43000084600001546040518363ffffffff1660e01b81526004016104bb9190610eb4565b6000604051808303818588803b1580156104d457600080fd5b505af11580156104e8573d6000803e3d6000fd5b5050505050505b60018160040160006101000a81548160ff0219169083151502179055505050565b600047905090565b6000600360009054906101000a900473ffffffffffffffffffffffffffffffffffffffff1673ffffffffffffffffffffffffffffffffffffffff166370a08231336040518263ffffffff1660e01b81526004016105759190610f50565b602060405180830381865afa158015610592573d6000803e3d6000fd5b505050506040513d601f19601f820116820180604052508101906105b69190611045565b116105f6576040517f08c379a00000000000000000000000000000000000000000000000000000000081526004016105ed906110cf565b60405180910390fd5b60006004600060055481526020019081526020016000209050818160010181905550828160000181905550600560008154809291906106349061118a565b9190505550505050565b610646610c85565b6106506000610d03565b565b61065a610c85565b6000479050600081116106a2576040517f08c379a000000000000000000000000000000000000000000000000000000000815260040161069990611244565b60405180910390fd5b60006106ac610759565b73ffffffffffffffffffffffffffffffffffffffff16826040516106cf90611295565b60006040518083038185875af1925050503d806000811461070c576040519150601f19603f3d011682016040523d82523d6000602084013e610711565b606091505b5050905080610755576040517f08c379a000000000000000000000000000000000000000000000000000000000815260040161074c906112f6565b60405180910390fd5b5050565b60008060009054906101000a900473ffffffffffffffffffffffffffffffffffffffff16905090565b60055481565b6000600360009054906101000a900473ffffffffffffffffffffffffffffffffffffffff1673ffffffffffffffffffffffffffffffffffffffff166370a08231336040518263ffffffff1660e01b81526004016107e59190610f50565b602060405180830381865afa158015610802573d6000803e3d6000fd5b505050506040513d601f19601f820116820180604052508101906108269190611045565b11610866576040517f08c379a000000000000000000000000000000000000000000000000000000000815260040161085d906110cf565b60405180910390fd5b60055482106108aa576040517f08c379a00000000000000000000000000000000000000000000000000000000081526004016108a190611362565b60405180910390fd5b600015156004600084815260200190815260200160002060040160009054906101000a900460ff16151514610914576040517f08c379a000000000000000000000000000000000000000000000000000000000815260040161090b906113ce565b60405180910390fd5b4260046000848152602001908152602001600020600101541161096c576040517f08c379a00000000000000000000000000000000000000000000000000000000081526004016109639061143a565b60405180910390fd5b60008060046000858152602001908152602001600020905060005b600360009054906101000a900473ffffffffffffffffffffffffffffffffffffffff1673ffffffffffffffffffffffffffffffffffffffff166370a08231336040518263ffffffff1660e01b81526004016109e29190610f50565b602060405180830381865afa1580156109ff573d6000803e3d6000fd5b505050506040513d601f19601f82011682018060405250810190610a239190611045565b811015610b4c576000600360009054906101000a900473ffffffffffffffffffffffffffffffffffffffff1673ffffffffffffffffffffffffffffffffffffffff16632f745c593360006040518363ffffffff1660e01b8152600401610a8a92919061149f565b602060405180830381865afa158015610aa7573d6000803e3d6000fd5b505050506040513d601f19601f82011682018060405250810190610acb9190611045565b90506000151583600501600083815260200190815260200160002060009054906101000a900460ff16151503610b38578380610b069061118a565b945050600183600501600083815260200190815260200160002060006101000a81548160ff0219169083151502179055505b508080610b449061118a565b915050610987565b5060008211610b90576040517f08c379a0000000000000000000000000000000000000000000000000000000008152600401610b8790611514565b60405180910390fd5b6001151583151503610bce5781600460008681526020019081526020016000206002016000828254610bc29190611534565b92505081905550610bfc565b81600460008681526020019081526020016000206003016000828254610bf49190611534565b925050819055505b50505050565b610c0a610c85565b600073ffffffffffffffffffffffffffffffffffffffff168173ffffffffffffffffffffffffffffffffffffffff1603610c79576040517f08c379a0000000000000000000000000000000000000000000000000000000008152600401610c70906115da565b60405180910390fd5b610c8281610d03565b50565b610c8d610dc7565b73ffffffffffffffffffffffffffffffffffffffff16610cab610759565b73ffffffffffffffffffffffffffffffffffffffff1614610d01576040517f08c379a0000000000000000000000000000000000000000000000000000000008152600401610cf890611646565b60405180910390fd5b565b60008060009054906101000a900473ffffffffffffffffffffffffffffffffffffffff169050816000806101000a81548173ffffffffffffffffffffffffffffffffffffffff021916908373ffffffffffffffffffffffffffffffffffffffff1602179055508173ffffffffffffffffffffffffffffffffffffffff168173ffffffffffffffffffffffffffffffffffffffff167f8be0079c531659141344cd1fd0a4f28419497f9722a3daafe3b4186f6b6457e060405160405180910390a35050565b600033905090565b600080fd5b6000819050919050565b610de781610dd4565b8114610df257600080fd5b50565b600081359050610e0481610dde565b92915050565b600060208284031215610e2057610e1f610dcf565b5b6000610e2e84828501610df5565b91505092915050565b610e4081610dd4565b82525050565b60008115159050919050565b610e5b81610e46565b82525050565b600060a082019050610e766000830188610e37565b610e836020830187610e37565b610e906040830186610e37565b610e9d6060830185610e37565b610eaa6080830184610e52565b9695505050505050565b6000602082019050610ec96000830184610e37565b92915050565b60008060408385031215610ee657610ee5610dcf565b5b6000610ef485828601610df5565b9250506020610f0585828601610df5565b9150509250929050565b600073ffffffffffffffffffffffffffffffffffffffff82169050919050565b6000610f3a82610f0f565b9050919050565b610f4a81610f2f565b82525050565b6000602082019050610f656000830184610f41565b92915050565b610f7481610e46565b8114610f7f57600080fd5b50565b600081359050610f9181610f6b565b92915050565b60008060408385031215610fae57610fad610dcf565b5b6000610fbc85828601610df5565b9250506020610fcd85828601610f82565b9150509250929050565b610fe081610f2f565b8114610feb57600080fd5b50565b600081359050610ffd81610fd7565b92915050565b60006020828403121561101957611018610dcf565b5b600061102784828501610fee565b91505092915050565b60008151905061103f81610dde565b92915050565b60006020828403121561105b5761105a610dcf565b5b600061106984828501611030565b91505092915050565b600082825260208201905092915050565b7f4275792044414f20546f6b656e73200000000000000000000000000000000000600082015250565b60006110b9600f83611072565b91506110c482611083565b602082019050919050565b600060208201905081810360008301526110e8816110ac565b9050919050565b7f4e4f545f454e4f5547485f46554e445300000000000000000000000000000000600082015250565b6000611125601083611072565b9150611130826110ef565b602082019050919050565b6000602082019050818103600083015261115481611118565b9050919050565b7f4e487b7100000000000000000000000000000000000000000000000000000000600052601160045260246000fd5b600061119582610dd4565b91507fffffffffffffffffffffffffffffffffffffffffffffffffffffffffffffffff82036111c7576111c661115b565b5b600182019050919050565b7f4e6f7468696e6720746f2077697468647261772c20636f6e747261637420626160008201527f6c616e636520656d707479000000000000000000000000000000000000000000602082015250565b600061122e602b83611072565b9150611239826111d2565b604082019050919050565b6000602082019050818103600083015261125d81611221565b9050919050565b600081905092915050565b50565b600061127f600083611264565b915061128a8261126f565b600082019050919050565b60006112a082611272565b9150819050919050565b7f4641494c45445f544f5f57495448445241575f45544845520000000000000000600082015250565b60006112e0601883611072565b91506112eb826112aa565b602082019050919050565b6000602082019050818103600083015261130f816112d3565b9050919050565b7f70726f706f73616c20646f65736e277420657869747300000000000000000000600082015250565b600061134c601683611072565b915061135782611316565b602082019050919050565b6000602082019050818103600083015261137b8161133f565b9050919050565b7f50726f706f73616c20616c726561647920657865637574656400000000000000600082015250565b60006113b8601983611072565b91506113c382611382565b602082019050919050565b600060208201905081810360008301526113e7816113ab565b9050919050565b7f444541444c494e455f4558434545444544000000000000000000000000000000600082015250565b6000611424601183611072565b915061142f826113ee565b602082019050919050565b6000602082019050818103600083015261145381611417565b9050919050565b6000819050919050565b6000819050919050565b600061148961148461147f8461145a565b611464565b610dd4565b9050919050565b6114998161146e565b82525050565b60006040820190506114b46000830185610f41565b6114c16020830184611490565b9392505050565b7f414c52454144595f564f54454400000000000000000000000000000000000000600082015250565b60006114fe600d83611072565b9150611509826114c8565b602082019050919050565b6000602082019050818103600083015261152d816114f1565b9050919050565b600061153f82610dd4565b915061154a83610dd4565b92508282019050808211156115625761156161115b565b5b92915050565b7f4f776e61626c653a206e6577206f776e657220697320746865207a65726f206160008201527f6464726573730000000000000000000000000000000000000000000000000000602082015250565b60006115c4602683611072565b91506115cf82611568565b604082019050919050565b600060208201905081810360008301526115f3816115b7565b9050919050565b7f4f776e61626c653a2063616c6c6572206973206e6f7420746865206f776e6572600082015250565b6000611630602083611072565b915061163b826115fa565b602082019050919050565b6000602082019050818103600083015261165f81611623565b905091905056fea2646970667358221220db676402da1e8ab23cd5cb4a87e75bb2095ca3fcb0ed29e8b116444513dddf6064736f6c63430008120033",
  "linkReferences": {},
  "deployedLinkReferences": {}
}