{
  "_format": "hh-sol-artifact-1",
  "contractName": "DAO",
  "sourceName": "contracts/Dao.sol",
  "abi": [
    {
      "inputs": [
        {
          "internalType": "address",
          "name": "_nftMarketplace",
          "type": "address"
        },
        {
          "internalType": "address",
          "name": "_artoken",
          "type": "address"
        },
        {
          "internalType": "address",
          "name": "_daotoken",
          "type": "address"
        }
      ],
      "stateMutability": "nonpayable",
      "type": "constructor"
    },
    {
      "anonymous": false,
      "inputs": [
        {
          "indexed": true,
          "internalType": "address",
          "name": "owner",
          "type": "address"
        },
        {
          "indexed": true,
          "internalType": "address",
          "name": "approved",
          "type": "address"
        },
        {
          "indexed": true,
          "internalType": "uint256",
          "name": "tokenId",
          "type": "uint256"
        }
      ],
      "name": "Approval",
      "type": "event"
    },
    {
      "anonymous": false,
      "inputs": [
        {
          "indexed": true,
          "internalType": "address",
          "name": "owner",
          "type": "address"
        },
        {
          "indexed": true,
          "internalType": "address",
          "name": "operator",
          "type": "address"
        },
        {
          "indexed": false,
          "internalType": "bool",
          "name": "approved",
          "type": "bool"
        }
      ],
      "name": "ApprovalForAll",
      "type": "event"
    },
    {
      "anonymous": false,
      "inputs": [
        {
          "indexed": true,
          "internalType": "address",
          "name": "previousOwner",
          "type": "address"
        },
        {
          "indexed": true,
          "internalType": "address",
          "name": "newOwner",
          "type": "address"
        }
      ],
      "name": "OwnershipTransferred",
      "type": "event"
    },
    {
      "anonymous": false,
      "inputs": [
        {
          "indexed": true,
          "internalType": "address",
          "name": "from",
          "type": "address"
        },
        {
          "indexed": true,
          "internalType": "address",
          "name": "to",
          "type": "address"
        },
        {
          "indexed": true,
          "internalType": "uint256",
          "name": "tokenId",
          "type": "uint256"
        }
      ],
      "name": "Transfer",
      "type": "event"
    },
    {
      "inputs": [
        {
          "internalType": "uint256",
          "name": "_tokenId",
          "type": "uint256"
        },
        {
          "internalType": "uint256",
          "name": "_deadline",
          "type": "uint256"
        }
      ],
      "name": "CreateProposal",
      "outputs": [],
      "stateMutability": "nonpayable",
      "type": "function"
    },
    {
      "inputs": [
        {
          "internalType": "address",
          "name": "to",
          "type": "address"
        },
        {
          "internalType": "uint256",
          "name": "tokenId",
          "type": "uint256"
        }
      ],
      "name": "approve",
      "outputs": [],
      "stateMutability": "nonpayable",
      "type": "function"
    },
    {
      "inputs": [
        {
          "internalType": "address",
          "name": "owner",
          "type": "address"
        }
      ],
      "name": "balanceOf",
      "outputs": [
        {
          "internalType": "uint256",
          "name": "",
          "type": "uint256"
        }
      ],
      "stateMutability": "view",
      "type": "function"
    },
    {
      "inputs": [
        {
          "internalType": "uint256",
          "name": "proposalIndex",
          "type": "uint256"
        }
      ],
      "name": "executeProposal",
      "outputs": [],
      "stateMutability": "nonpayable",
      "type": "function"
    },
    {
      "inputs": [
        {
          "internalType": "uint256",
          "name": "tokenId",
          "type": "uint256"
        }
      ],
      "name": "getApproved",
      "outputs": [
        {
          "internalType": "address",
          "name": "",
          "type": "address"
        }
      ],
      "stateMutability": "view",
      "type": "function"
    },
    {
      "inputs": [],
      "name": "getBalance",
      "outputs": [
        {
          "internalType": "uint256",
          "name": "",
          "type": "uint256"
        }
      ],
      "stateMutability": "view",
      "type": "function"
    },
    {
      "inputs": [
        {
          "internalType": "address",
          "name": "owner",
          "type": "address"
        },
        {
          "internalType": "address",
          "name": "operator",
          "type": "address"
        }
      ],
      "name": "isApprovedForAll",
      "outputs": [
        {
          "internalType": "bool",
          "name": "",
          "type": "bool"
        }
      ],
      "stateMutability": "view",
      "type": "function"
    },
    {
      "inputs": [],
      "name": "mint",
      "outputs": [],
      "stateMutability": "payable",
      "type": "function"
    },
    {
      "inputs": [],
      "name": "name",
      "outputs": [
        {
          "internalType": "string",
          "name": "",
          "type": "string"
        }
      ],
      "stateMutability": "view",
      "type": "function"
    },
    {
      "inputs": [],
      "name": "owner",
      "outputs": [
        {
          "internalType": "address",
          "name": "",
          "type": "address"
        }
      ],
      "stateMutability": "view",
      "type": "function"
    },
    {
      "inputs": [
        {
          "internalType": "uint256",
          "name": "tokenId",
          "type": "uint256"
        }
      ],
      "name": "ownerOf",
      "outputs": [
        {
          "internalType": "address",
          "name": "",
          "type": "address"
        }
      ],
      "stateMutability": "view",
      "type": "function"
    },
    {
      "inputs": [
        {
          "internalType": "uint256",
          "name": "",
          "type": "uint256"
        }
      ],
      "name": "proposals",
      "outputs": [
        {
          "internalType": "uint256",
          "name": "nftTokenId",
          "type": "uint256"
        },
        {
          "internalType": "uint256",
          "name": "deadline",
          "type": "uint256"
        },
        {
          "internalType": "uint256",
          "name": "PosVotes",
          "type": "uint256"
        },
        {
          "internalType": "uint256",
          "name": "NegVotes",
          "type": "uint256"
        },
        {
          "internalType": "bool",
          "name": "executed",
          "type": "bool"
        }
      ],
      "stateMutability": "view",
      "type": "function"
    },
    {
      "inputs": [],
      "name": "renounceOwnership",
      "outputs": [],
      "stateMutability": "nonpayable",
      "type": "function"
    },
    {
      "inputs": [
        {
          "internalType": "address",
          "name": "from",
          "type": "address"
        },
        {
          "internalType": "address",
          "name": "to",
          "type": "address"
        },
        {
          "internalType": "uint256",
          "name": "tokenId",
          "type": "uint256"
        }
      ],
      "name": "safeTransferFrom",
      "outputs": [],
      "stateMutability": "nonpayable",
      "type": "function"
    },
    {
      "inputs": [
        {
          "internalType": "address",
          "name": "from",
          "type": "address"
        },
        {
          "internalType": "address",
          "name": "to",
          "type": "address"
        },
        {
          "internalType": "uint256",
          "name": "tokenId",
          "type": "uint256"
        },
        {
          "internalType": "bytes",
          "name": "data",
          "type": "bytes"
        }
      ],
      "name": "safeTransferFrom",
      "outputs": [],
      "stateMutability": "nonpayable",
      "type": "function"
    },
    {
      "inputs": [
        {
          "internalType": "address",
          "name": "operator",
          "type": "address"
        },
        {
          "internalType": "bool",
          "name": "approved",
          "type": "bool"
        }
      ],
      "name": "setApprovalForAll",
      "outputs": [],
      "stateMutability": "nonpayable",
      "type": "function"
    },
    {
      "inputs": [
        {
          "internalType": "bytes4",
          "name": "interfaceId",
          "type": "bytes4"
        }
      ],
      "name": "supportsInterface",
      "outputs": [
        {
          "internalType": "bool",
          "name": "",
          "type": "bool"
        }
      ],
      "stateMutability": "view",
      "type": "function"
    },
    {
      "inputs": [],
      "name": "symbol",
      "outputs": [
        {
          "internalType": "string",
          "name": "",
          "type": "string"
        }
      ],
      "stateMutability": "view",
      "type": "function"
    },
    {
      "inputs": [
        {
          "internalType": "uint256",
          "name": "index",
          "type": "uint256"
        }
      ],
      "name": "tokenByIndex",
      "outputs": [
        {
          "internalType": "uint256",
          "name": "",
          "type": "uint256"
        }
      ],
      "stateMutability": "view",
      "type": "function"
    },
    {
      "inputs": [
        {
          "internalType": "address",
          "name": "owner",
          "type": "address"
        },
        {
          "internalType": "uint256",
          "name": "index",
          "type": "uint256"
        }
      ],
      "name": "tokenOfOwnerByIndex",
      "outputs": [
        {
          "internalType": "uint256",
          "name": "",
          "type": "uint256"
        }
      ],
      "stateMutability": "view",
      "type": "function"
    },
    {
      "inputs": [
        {
          "internalType": "uint256",
          "name": "tokenId",
          "type": "uint256"
        }
      ],
      "name": "tokenURI",
      "outputs": [
        {
          "internalType": "string",
          "name": "",
          "type": "string"
        }
      ],
      "stateMutability": "view",
      "type": "function"
    },
    {
      "inputs": [],
      "name": "totalProposals",
      "outputs": [
        {
          "internalType": "uint256",
          "name": "",
          "type": "uint256"
        }
      ],
      "stateMutability": "view",
      "type": "function"
    },
    {
      "inputs": [],
      "name": "totalSupply",
      "outputs": [
        {
          "internalType": "uint256",
          "name": "",
          "type": "uint256"
        }
      ],
      "stateMutability": "view",
      "type": "function"
    },
    {
      "inputs": [
        {
          "internalType": "address",
          "name": "from",
          "type": "address"
        },
        {
          "internalType": "address",
          "name": "to",
          "type": "address"
        },
        {
          "internalType": "uint256",
          "name": "tokenId",
          "type": "uint256"
        }
      ],
      "name": "transferFrom",
      "outputs": [],
      "stateMutability": "nonpayable",
      "type": "function"
    },
    {
      "inputs": [
        {
          "internalType": "address",
          "name": "newOwner",
          "type": "address"
        }
      ],
      "name": "transferOwnership",
      "outputs": [],
      "stateMutability": "nonpayable",
      "type": "function"
    },
    {
      "inputs": [
        {
          "internalType": "uint256",
          "name": "_proposalId",
          "type": "uint256"
        },
        {
          "internalType": "bool",
          "name": "_vote",
          "type": "bool"
        }
      ],
      "name": "vote",
      "outputs": [],
      "stateMutability": "nonpayable",
      "type": "function"
    },
    {
      "inputs": [],
      "name": "withdrawEther",
      "outputs": [],
      "stateMutability": "nonpayable",
      "type": "function"
    },
    {
      "stateMutability": "payable",
      "type": "receive"
    }
  ],
  "bytecode": "0x60806040526000600f553480156200001657600080fd5b5060405162004a3138038062004a3183398181016040528101906200003c9190620002f0565b6040518060400160405280600881526020017f44414f546f6b656e0000000000000000000000000000000000000000000000008152506040518060400160405280600281526020017f4454000000000000000000000000000000000000000000000000000000000000815250620000c8620000bc620001ba60201b60201c565b620001c260201b60201c565b8160019081620000d99190620005c6565b508060029081620000eb9190620005c6565b50505082600b60006101000a81548173ffffffffffffffffffffffffffffffffffffffff021916908373ffffffffffffffffffffffffffffffffffffffff16021790555081600c60006101000a81548173ffffffffffffffffffffffffffffffffffffffff021916908373ffffffffffffffffffffffffffffffffffffffff16021790555080600d60006101000a81548173ffffffffffffffffffffffffffffffffffffffff021916908373ffffffffffffffffffffffffffffffffffffffff160217905550505050620006ad565b600033905090565b60008060009054906101000a900473ffffffffffffffffffffffffffffffffffffffff169050816000806101000a81548173ffffffffffffffffffffffffffffffffffffffff021916908373ffffffffffffffffffffffffffffffffffffffff1602179055508173ffffffffffffffffffffffffffffffffffffffff168173ffffffffffffffffffffffffffffffffffffffff167f8be0079c531659141344cd1fd0a4f28419497f9722a3daafe3b4186f6b6457e060405160405180910390a35050565b600080fd5b600073ffffffffffffffffffffffffffffffffffffffff82169050919050565b6000620002b8826200028b565b9050919050565b620002ca81620002ab565b8114620002d657600080fd5b50565b600081519050620002ea81620002bf565b92915050565b6000806000606084860312156200030c576200030b62000286565b5b60006200031c86828701620002d9565b93505060206200032f86828701620002d9565b92505060406200034286828701620002d9565b9150509250925092565b600081519050919050565b7f4e487b7100000000000000000000000000000000000000000000000000000000600052604160045260246000fd5b7f4e487b7100000000000000000000000000000000000000000000000000000000600052602260045260246000fd5b60006002820490506001821680620003ce57607f821691505b602082108103620003e457620003e362000386565b5b50919050565b60008190508160005260206000209050919050565b60006020601f8301049050919050565b600082821b905092915050565b6000600883026200044e7fffffffffffffffffffffffffffffffffffffffffffffffffffffffffffffffff826200040f565b6200045a86836200040f565b95508019841693508086168417925050509392505050565b6000819050919050565b6000819050919050565b6000620004a7620004a16200049b8462000472565b6200047c565b62000472565b9050919050565b6000819050919050565b620004c38362000486565b620004db620004d282620004ae565b8484546200041c565b825550505050565b600090565b620004f2620004e3565b620004ff818484620004b8565b505050565b5b8181101562000527576200051b600082620004e8565b60018101905062000505565b5050565b601f82111562000576576200054081620003ea565b6200054b84620003ff565b810160208510156200055b578190505b620005736200056a85620003ff565b83018262000504565b50505b505050565b600082821c905092915050565b60006200059b600019846008026200057b565b1980831691505092915050565b6000620005b6838362000588565b9150826002028217905092915050565b620005d1826200034c565b67ffffffffffffffff811115620005ed57620005ec62000357565b5b620005f98254620003b5565b620006068282856200052b565b600060209050601f8311600181146200063e576000841562000629578287015190505b620006358582620005a8565b865550620006a5565b601f1984166200064e86620003ea565b60005b82811015620006785784890151825560018201915060208501945060208101905062000651565b8683101562000698578489015162000694601f89168262000588565b8355505b6001600288020188555050505b505050505050565b61437480620006bd6000396000f3fe6080604052600436106101a05760003560e01c80636352211e116100ec578063a22cb4651161008a578063c87b56dd11610064578063c87b56dd146105b4578063c9d27afe146105f1578063e985e9c51461061a578063f2fde38b14610657576101a7565b8063a22cb46514610537578063a78d80fc14610560578063b88d4fde1461058b576101a7565b8063715018a6116100c6578063715018a6146104b35780637362377b146104ca5780638da5cb5b146104e157806395d89b411461050c576101a7565b80636352211e146104105780636638d63c1461044d57806370a0823114610476576101a7565b806312065fe01161015957806323b872dd1161013357806323b872dd146103445780632f745c591461036d57806342842e0e146103aa5780634f6ccce7146103d3576101a7565b806312065fe0146102e45780631249c58b1461030f57806318160ddd14610319576101a7565b8063013cf08b146101ac57806301ffc9a7146101ed57806306fdde031461022a578063081812fc14610255578063095ea7b3146102925780630d61b519146102bb576101a7565b366101a757005b600080fd5b3480156101b857600080fd5b506101d360048036038101906101ce9190612ca2565b610680565b6040516101e4959493929190612cf9565b60405180910390f35b3480156101f957600080fd5b50610214600480360381019061020f9190612da4565b6106c3565b6040516102219190612dd1565b60405180910390f35b34801561023657600080fd5b5061023f61073d565b60405161024c9190612e7c565b60405180910390f35b34801561026157600080fd5b5061027c60048036038101906102779190612ca2565b6107cf565b6040516102899190612edf565b60405180910390f35b34801561029e57600080fd5b506102b960048036038101906102b49190612f26565b610815565b005b3480156102c757600080fd5b506102e260048036038101906102dd9190612ca2565b61092c565b005b3480156102f057600080fd5b506102f9610bc4565b6040516103069190612f66565b60405180910390f35b610317610bcc565b005b34801561032557600080fd5b5061032e610c28565b60405161033b9190612f66565b60405180910390f35b34801561035057600080fd5b5061036b60048036038101906103669190612f81565b610c35565b005b34801561037957600080fd5b50610394600480360381019061038f9190612f26565b610c95565b6040516103a19190612f66565b60405180910390f35b3480156103b657600080fd5b506103d160048036038101906103cc9190612f81565b610d3a565b005b3480156103df57600080fd5b506103fa60048036038101906103f59190612ca2565b610d5a565b6040516104079190612f66565b60405180910390f35b34801561041c57600080fd5b5061043760048036038101906104329190612ca2565b610dcb565b6040516104449190612edf565b60405180910390f35b34801561045957600080fd5b50610474600480360381019061046f9190612fd4565b610e51565b005b34801561048257600080fd5b5061049d60048036038101906104989190613014565b610f77565b6040516104aa9190612f66565b60405180910390f35b3480156104bf57600080fd5b506104c861102e565b005b3480156104d657600080fd5b506104df611042565b005b3480156104ed57600080fd5b506104f6611149565b6040516105039190612edf565b60405180910390f35b34801561051857600080fd5b50610521611172565b60405161052e9190612e7c565b60405180910390f35b34801561054357600080fd5b5061055e6004803603810190610559919061306d565b611204565b005b34801561056c57600080fd5b5061057561121a565b6040516105829190612f66565b60405180910390f35b34801561059757600080fd5b506105b260048036038101906105ad91906131e2565b611220565b005b3480156105c057600080fd5b506105db60048036038101906105d69190612ca2565b611282565b6040516105e89190612e7c565b60405180910390f35b3480156105fd57600080fd5b5061061860048036038101906106139190613265565b6112ea565b005b34801561062657600080fd5b50610641600480360381019061063c91906132a5565b611764565b60405161064e9190612dd1565b60405180910390f35b34801561066357600080fd5b5061067e60048036038101906106799190613014565b6117f8565b005b600e6020528060005260406000206000915090508060000154908060010154908060020154908060030154908060040160009054906101000a900460ff16905085565b60007f780e9d63000000000000000000000000000000000000000000000000000000007bffffffffffffffffffffffffffffffffffffffffffffffffffffffff1916827bffffffffffffffffffffffffffffffffffffffffffffffffffffffff1916148061073657506107358261187b565b5b9050919050565b60606001805461074c90613314565b80601f016020809104026020016040519081016040528092919081815260200182805461077890613314565b80156107c55780601f1061079a576101008083540402835291602001916107c5565b820191906000526020600020905b8154815290600101906020018083116107a857829003601f168201915b5050505050905090565b60006107da8261195d565b6005600083815260200190815260200160002060009054906101000a900473ffffffffffffffffffffffffffffffffffffffff169050919050565b600061082082610dcb565b90508073ffffffffffffffffffffffffffffffffffffffff168373ffffffffffffffffffffffffffffffffffffffff1603610890576040517f08c379a0000000000000000000000000000000000000000000000000000000008152600401610887906133b7565b60405180910390fd5b8073ffffffffffffffffffffffffffffffffffffffff166108af6119a8565b73ffffffffffffffffffffffffffffffffffffffff1614806108de57506108dd816108d86119a8565b611764565b5b61091d576040517f08c379a000000000000000000000000000000000000000000000000000000000815260040161091490613449565b60405180910390fd5b61092783836119b0565b505050565b6000600d60009054906101000a900473ffffffffffffffffffffffffffffffffffffffff1673ffffffffffffffffffffffffffffffffffffffff166370a08231336040518263ffffffff1660e01b81526004016109899190612edf565b602060405180830381865afa1580156109a6573d6000803e3d6000fd5b505050506040513d601f19601f820116820180604052508101906109ca919061347e565b11610a0a576040517f08c379a0000000000000000000000000000000000000000000000000000000008152600401610a01906134f7565b60405180910390fd5b6000600e600083815260200190815260200160002090508060030154816002015410610ba3576000600b60009054906101000a900473ffffffffffffffffffffffffffffffffffffffff1673ffffffffffffffffffffffffffffffffffffffff166398d5fdca6040518163ffffffff1660e01b8152600401602060405180830381865afa158015610a9f573d6000803e3d6000fd5b505050506040513d601f19601f82011682018060405250810190610ac3919061347e565b905080471015610b08576040517f08c379a0000000000000000000000000000000000000000000000000000000008152600401610aff90613563565b60405180910390fd5b600b60009054906101000a900473ffffffffffffffffffffffffffffffffffffffff1673ffffffffffffffffffffffffffffffffffffffff1663efef39a1666a94d74f43000084600001546040518363ffffffff1660e01b8152600401610b6f9190612f66565b6000604051808303818588803b158015610b8857600080fd5b505af1158015610b9c573d6000803e3d6000fd5b5050505050505b60018160040160006101000a81548160ff0219169083151502179055505050565b600047905090565b66470de4df8200003414610c15576040517f08c379a0000000000000000000000000000000000000000000000000000000008152600401610c0c906135cf565b60405180910390fd5b610c2633610c21610c28565b611a69565b565b6000600980549050905090565b610c46610c406119a8565b82611c86565b610c85576040517f08c379a0000000000000000000000000000000000000000000000000000000008152600401610c7c90613661565b60405180910390fd5b610c90838383611d1b565b505050565b6000610ca083610f77565b8210610ce1576040517f08c379a0000000000000000000000000000000000000000000000000000000008152600401610cd8906136f3565b60405180910390fd5b600760008473ffffffffffffffffffffffffffffffffffffffff1673ffffffffffffffffffffffffffffffffffffffff168152602001908152602001600020600083815260200190815260200160002054905092915050565b610d5583838360405180602001604052806000815250611220565b505050565b6000610d64610c28565b8210610da5576040517f08c379a0000000000000000000000000000000000000000000000000000000008152600401610d9c90613785565b60405180910390fd5b60098281548110610db957610db86137a5565b5b90600052602060002001549050919050565b600080610dd783612014565b9050600073ffffffffffffffffffffffffffffffffffffffff168173ffffffffffffffffffffffffffffffffffffffff1603610e48576040517f08c379a0000000000000000000000000000000000000000000000000000000008152600401610e3f90613820565b60405180910390fd5b80915050919050565b6000600d60009054906101000a900473ffffffffffffffffffffffffffffffffffffffff1673ffffffffffffffffffffffffffffffffffffffff166370a08231336040518263ffffffff1660e01b8152600401610eae9190612edf565b602060405180830381865afa158015610ecb573d6000803e3d6000fd5b505050506040513d601f19601f82011682018060405250810190610eef919061347e565b11610f2f576040517f08c379a0000000000000000000000000000000000000000000000000000000008152600401610f26906134f7565b60405180910390fd5b6000600e6000600f5481526020019081526020016000209050818160010181905550828160000181905550600f6000815480929190610f6d9061386f565b9190505550505050565b60008073ffffffffffffffffffffffffffffffffffffffff168273ffffffffffffffffffffffffffffffffffffffff1603610fe7576040517f08c379a0000000000000000000000000000000000000000000000000000000008152600401610fde90613929565b60405180910390fd5b600460008373ffffffffffffffffffffffffffffffffffffffff1673ffffffffffffffffffffffffffffffffffffffff168152602001908152602001600020549050919050565b611036612051565b61104060006120cf565b565b61104a612051565b600047905060008111611092576040517f08c379a0000000000000000000000000000000000000000000000000000000008152600401611089906139bb565b60405180910390fd5b600061109c611149565b73ffffffffffffffffffffffffffffffffffffffff16826040516110bf90613a0c565b60006040518083038185875af1925050503d80600081146110fc576040519150601f19603f3d011682016040523d82523d6000602084013e611101565b606091505b5050905080611145576040517f08c379a000000000000000000000000000000000000000000000000000000000815260040161113c90613a6d565b60405180910390fd5b5050565b60008060009054906101000a900473ffffffffffffffffffffffffffffffffffffffff16905090565b60606002805461118190613314565b80601f01602080910402602001604051908101604052809291908181526020018280546111ad90613314565b80156111fa5780601f106111cf576101008083540402835291602001916111fa565b820191906000526020600020905b8154815290600101906020018083116111dd57829003601f168201915b5050505050905090565b61121661120f6119a8565b8383612193565b5050565b600f5481565b61123161122b6119a8565b83611c86565b611270576040517f08c379a000000000000000000000000000000000000000000000000000000000815260040161126790613661565b60405180910390fd5b61127c848484846122ff565b50505050565b606061128d8261195d565b600061129761235b565b905060008151116112b757604051806020016040528060008152506112e2565b806112c184612372565b6040516020016112d2929190613ac9565b6040516020818303038152906040525b915050919050565b6000600d60009054906101000a900473ffffffffffffffffffffffffffffffffffffffff1673ffffffffffffffffffffffffffffffffffffffff166370a08231336040518263ffffffff1660e01b81526004016113479190612edf565b602060405180830381865afa158015611364573d6000803e3d6000fd5b505050506040513d601f19601f82011682018060405250810190611388919061347e565b116113c8576040517f08c379a00000000000000000000000000000000000000000000000000000000081526004016113bf906134f7565b60405180910390fd5b600f54821061140c576040517f08c379a000000000000000000000000000000000000000000000000000000000815260040161140390613b39565b60405180910390fd5b60001515600e600084815260200190815260200160002060040160009054906101000a900460ff16151514611476576040517f08c379a000000000000000000000000000000000000000000000000000000000815260040161146d90613ba5565b60405180910390fd5b42600e600084815260200190815260200160002060010154116114ce576040517f08c379a00000000000000000000000000000000000000000000000000000000081526004016114c590613c11565b60405180910390fd5b600080600e6000858152602001908152602001600020905060005b600d60009054906101000a900473ffffffffffffffffffffffffffffffffffffffff1673ffffffffffffffffffffffffffffffffffffffff166370a08231336040518263ffffffff1660e01b81526004016115449190612edf565b602060405180830381865afa158015611561573d6000803e3d6000fd5b505050506040513d601f19601f82011682018060405250810190611585919061347e565b8110156116ae576000600d60009054906101000a900473ffffffffffffffffffffffffffffffffffffffff1673ffffffffffffffffffffffffffffffffffffffff16632f745c593360006040518363ffffffff1660e01b81526004016115ec929190613c76565b602060405180830381865afa158015611609573d6000803e3d6000fd5b505050506040513d601f19601f8201168201806040525081019061162d919061347e565b90506000151583600501600083815260200190815260200160002060009054906101000a900460ff1615150361169a5783806116689061386f565b945050600183600501600083815260200190815260200160002060006101000a81548160ff0219169083151502179055505b5080806116a69061386f565b9150506114e9565b50600082116116f2576040517f08c379a00000000000000000000000000000000000000000000000000000000081526004016116e990613ceb565b60405180910390fd5b60011515831515036117305781600e600086815260200190815260200160002060020160008282546117249190613d0b565b9250508190555061175e565b81600e600086815260200190815260200160002060030160008282546117569190613d0b565b925050819055505b50505050565b6000600660008473ffffffffffffffffffffffffffffffffffffffff1673ffffffffffffffffffffffffffffffffffffffff16815260200190815260200160002060008373ffffffffffffffffffffffffffffffffffffffff1673ffffffffffffffffffffffffffffffffffffffff16815260200190815260200160002060009054906101000a900460ff16905092915050565b611800612051565b600073ffffffffffffffffffffffffffffffffffffffff168173ffffffffffffffffffffffffffffffffffffffff160361186f576040517f08c379a000000000000000000000000000000000000000000000000000000000815260040161186690613db1565b60405180910390fd5b611878816120cf565b50565b60007f80ac58cd000000000000000000000000000000000000000000000000000000007bffffffffffffffffffffffffffffffffffffffffffffffffffffffff1916827bffffffffffffffffffffffffffffffffffffffffffffffffffffffff1916148061194657507f5b5e139f000000000000000000000000000000000000000000000000000000007bffffffffffffffffffffffffffffffffffffffffffffffffffffffff1916827bffffffffffffffffffffffffffffffffffffffffffffffffffffffff1916145b80611956575061195582612440565b5b9050919050565b611966816124aa565b6119a5576040517f08c379a000000000000000000000000000000000000000000000000000000000815260040161199c90613820565b60405180910390fd5b50565b600033905090565b816005600083815260200190815260200160002060006101000a81548173ffffffffffffffffffffffffffffffffffffffff021916908373ffffffffffffffffffffffffffffffffffffffff160217905550808273ffffffffffffffffffffffffffffffffffffffff16611a2383610dcb565b73ffffffffffffffffffffffffffffffffffffffff167f8c5be1e5ebec7d5bd14f71427d1e84f3dd0314c0f7b2291e5b200ac8c7c3b92560405160405180910390a45050565b600073ffffffffffffffffffffffffffffffffffffffff168273ffffffffffffffffffffffffffffffffffffffff1603611ad8576040517f08c379a0000000000000000000000000000000000000000000000000000000008152600401611acf90613e1d565b60405180910390fd5b611ae1816124aa565b15611b21576040517f08c379a0000000000000000000000000000000000000000000000000000000008152600401611b1890613e89565b60405180910390fd5b611b2f6000838360016124eb565b611b38816124aa565b15611b78576040517f08c379a0000000000000000000000000000000000000000000000000000000008152600401611b6f90613e89565b60405180910390fd5b6001600460008473ffffffffffffffffffffffffffffffffffffffff1673ffffffffffffffffffffffffffffffffffffffff16815260200190815260200160002060008282540192505081905550816003600083815260200190815260200160002060006101000a81548173ffffffffffffffffffffffffffffffffffffffff021916908373ffffffffffffffffffffffffffffffffffffffff160217905550808273ffffffffffffffffffffffffffffffffffffffff16600073ffffffffffffffffffffffffffffffffffffffff167fddf252ad1be2c89b69c2b068fc378daa952ba7f163c4a11628f55a4df523b3ef60405160405180910390a4611c82600083836001612649565b5050565b600080611c9283610dcb565b90508073ffffffffffffffffffffffffffffffffffffffff168473ffffffffffffffffffffffffffffffffffffffff161480611cd45750611cd38185611764565b5b80611d1257508373ffffffffffffffffffffffffffffffffffffffff16611cfa846107cf565b73ffffffffffffffffffffffffffffffffffffffff16145b91505092915050565b8273ffffffffffffffffffffffffffffffffffffffff16611d3b82610dcb565b73ffffffffffffffffffffffffffffffffffffffff1614611d91576040517f08c379a0000000000000000000000000000000000000000000000000000000008152600401611d8890613f1b565b60405180910390fd5b600073ffffffffffffffffffffffffffffffffffffffff168273ffffffffffffffffffffffffffffffffffffffff1603611e00576040517f08c379a0000000000000000000000000000000000000000000000000000000008152600401611df790613fad565b60405180910390fd5b611e0d83838360016124eb565b8273ffffffffffffffffffffffffffffffffffffffff16611e2d82610dcb565b73ffffffffffffffffffffffffffffffffffffffff1614611e83576040517f08c379a0000000000000000000000000000000000000000000000000000000008152600401611e7a90613f1b565b60405180910390fd5b6005600082815260200190815260200160002060006101000a81549073ffffffffffffffffffffffffffffffffffffffff02191690556001600460008573ffffffffffffffffffffffffffffffffffffffff1673ffffffffffffffffffffffffffffffffffffffff168152602001908152602001600020600082825403925050819055506001600460008473ffffffffffffffffffffffffffffffffffffffff1673ffffffffffffffffffffffffffffffffffffffff16815260200190815260200160002060008282540192505081905550816003600083815260200190815260200160002060006101000a81548173ffffffffffffffffffffffffffffffffffffffff021916908373ffffffffffffffffffffffffffffffffffffffff160217905550808273ffffffffffffffffffffffffffffffffffffffff168473ffffffffffffffffffffffffffffffffffffffff167fddf252ad1be2c89b69c2b068fc378daa952ba7f163c4a11628f55a4df523b3ef60405160405180910390a461200f8383836001612649565b505050565b60006003600083815260200190815260200160002060009054906101000a900473ffffffffffffffffffffffffffffffffffffffff169050919050565b6120596119a8565b73ffffffffffffffffffffffffffffffffffffffff16612077611149565b73ffffffffffffffffffffffffffffffffffffffff16146120cd576040517f08c379a00000000000000000000000000000000000000000000000000000000081526004016120c490614019565b60405180910390fd5b565b60008060009054906101000a900473ffffffffffffffffffffffffffffffffffffffff169050816000806101000a81548173ffffffffffffffffffffffffffffffffffffffff021916908373ffffffffffffffffffffffffffffffffffffffff1602179055508173ffffffffffffffffffffffffffffffffffffffff168173ffffffffffffffffffffffffffffffffffffffff167f8be0079c531659141344cd1fd0a4f28419497f9722a3daafe3b4186f6b6457e060405160405180910390a35050565b8173ffffffffffffffffffffffffffffffffffffffff168373ffffffffffffffffffffffffffffffffffffffff1603612201576040517f08c379a00000000000000000000000000000000000000000000000000000000081526004016121f890614085565b60405180910390fd5b80600660008573ffffffffffffffffffffffffffffffffffffffff1673ffffffffffffffffffffffffffffffffffffffff16815260200190815260200160002060008473ffffffffffffffffffffffffffffffffffffffff1673ffffffffffffffffffffffffffffffffffffffff16815260200190815260200160002060006101000a81548160ff0219169083151502179055508173ffffffffffffffffffffffffffffffffffffffff168373ffffffffffffffffffffffffffffffffffffffff167f17307eab39ab6107e8899845ad3d59bd9653f200f220920489ca2b5937696c31836040516122f29190612dd1565b60405180910390a3505050565b61230a848484611d1b565b6123168484848461264f565b612355576040517f08c379a000000000000000000000000000000000000000000000000000000000815260040161234c90614117565b60405180910390fd5b50505050565b606060405180602001604052806000815250905090565b606060006001612381846127d6565b01905060008167ffffffffffffffff8111156123a05761239f6130b7565b5b6040519080825280601f01601f1916602001820160405280156123d25781602001600182028036833780820191505090505b509050600082602001820190505b600115612435578080600190039150507f3031323334353637383961626364656600000000000000000000000000000000600a86061a8153600a858161242957612428614137565b5b049450600085036123e0575b819350505050919050565b60007f01ffc9a7000000000000000000000000000000000000000000000000000000007bffffffffffffffffffffffffffffffffffffffffffffffffffffffff1916827bffffffffffffffffffffffffffffffffffffffffffffffffffffffff1916149050919050565b60008073ffffffffffffffffffffffffffffffffffffffff166124cc83612014565b73ffffffffffffffffffffffffffffffffffffffff1614159050919050565b6124f784848484612929565b600181111561253b576040517f08c379a0000000000000000000000000000000000000000000000000000000008152600401612532906141d8565b60405180910390fd5b6000829050600073ffffffffffffffffffffffffffffffffffffffff168573ffffffffffffffffffffffffffffffffffffffff16036125825761257d8161292f565b6125c1565b8373ffffffffffffffffffffffffffffffffffffffff168573ffffffffffffffffffffffffffffffffffffffff16146125c0576125bf8582612978565b5b5b600073ffffffffffffffffffffffffffffffffffffffff168473ffffffffffffffffffffffffffffffffffffffff1603612603576125fe81612ae5565b612642565b8473ffffffffffffffffffffffffffffffffffffffff168473ffffffffffffffffffffffffffffffffffffffff1614612641576126408482612bb6565b5b5b5050505050565b50505050565b60006126708473ffffffffffffffffffffffffffffffffffffffff16612c35565b156127c9578373ffffffffffffffffffffffffffffffffffffffff1663150b7a026126996119a8565b8786866040518563ffffffff1660e01b81526004016126bb949392919061424d565b6020604051808303816000875af19250505080156126f757506040513d601f19601f820116820180604052508101906126f491906142ae565b60015b612779573d8060008114612727576040519150601f19603f3d011682016040523d82523d6000602084013e61272c565b606091505b506000815103612771576040517f08c379a000000000000000000000000000000000000000000000000000000000815260040161276890614117565b60405180910390fd5b805181602001fd5b63150b7a0260e01b7bffffffffffffffffffffffffffffffffffffffffffffffffffffffff1916817bffffffffffffffffffffffffffffffffffffffffffffffffffffffff1916149150506127ce565b600190505b949350505050565b600080600090507a184f03e93ff9f4daa797ed6e38ed64bf6a1f0100000000000000008310612834577a184f03e93ff9f4daa797ed6e38ed64bf6a1f010000000000000000838161282a57612829614137565b5b0492506040810190505b6d04ee2d6d415b85acef81000000008310612871576d04ee2d6d415b85acef8100000000838161286757612866614137565b5b0492506020810190505b662386f26fc1000083106128a057662386f26fc10000838161289657612895614137565b5b0492506010810190505b6305f5e10083106128c9576305f5e10083816128bf576128be614137565b5b0492506008810190505b61271083106128ee5761271083816128e4576128e3614137565b5b0492506004810190505b60648310612911576064838161290757612906614137565b5b0492506002810190505b600a8310612920576001810190505b80915050919050565b50505050565b600980549050600a600083815260200190815260200160002081905550600981908060018154018082558091505060019003906000526020600020016000909190919091505550565b6000600161298584610f77565b61298f91906142db565b9050600060086000848152602001908152602001600020549050818114612a74576000600760008673ffffffffffffffffffffffffffffffffffffffff1673ffffffffffffffffffffffffffffffffffffffff168152602001908152602001600020600084815260200190815260200160002054905080600760008773ffffffffffffffffffffffffffffffffffffffff1673ffffffffffffffffffffffffffffffffffffffff168152602001908152602001600020600084815260200190815260200160002081905550816008600083815260200190815260200160002081905550505b6008600084815260200190815260200160002060009055600760008573ffffffffffffffffffffffffffffffffffffffff1673ffffffffffffffffffffffffffffffffffffffff16815260200190815260200160002060008381526020019081526020016000206000905550505050565b60006001600980549050612af991906142db565b90506000600a6000848152602001908152602001600020549050600060098381548110612b2957612b286137a5565b5b906000526020600020015490508060098381548110612b4b57612b4a6137a5565b5b906000526020600020018190555081600a600083815260200190815260200160002081905550600a6000858152602001908152602001600020600090556009805480612b9a57612b9961430f565b5b6001900381819060005260206000200160009055905550505050565b6000612bc183610f77565b905081600760008573ffffffffffffffffffffffffffffffffffffffff1673ffffffffffffffffffffffffffffffffffffffff168152602001908152602001600020600083815260200190815260200160002081905550806008600084815260200190815260200160002081905550505050565b6000808273ffffffffffffffffffffffffffffffffffffffff163b119050919050565b6000604051905090565b600080fd5b600080fd5b6000819050919050565b612c7f81612c6c565b8114612c8a57600080fd5b50565b600081359050612c9c81612c76565b92915050565b600060208284031215612cb857612cb7612c62565b5b6000612cc684828501612c8d565b91505092915050565b612cd881612c6c565b82525050565b60008115159050919050565b612cf381612cde565b82525050565b600060a082019050612d0e6000830188612ccf565b612d1b6020830187612ccf565b612d286040830186612ccf565b612d356060830185612ccf565b612d426080830184612cea565b9695505050505050565b60007fffffffff0000000000000000000000000000000000000000000000000000000082169050919050565b612d8181612d4c565b8114612d8c57600080fd5b50565b600081359050612d9e81612d78565b92915050565b600060208284031215612dba57612db9612c62565b5b6000612dc884828501612d8f565b91505092915050565b6000602082019050612de66000830184612cea565b92915050565b600081519050919050565b600082825260208201905092915050565b60005b83811015612e26578082015181840152602081019050612e0b565b60008484015250505050565b6000601f19601f8301169050919050565b6000612e4e82612dec565b612e588185612df7565b9350612e68818560208601612e08565b612e7181612e32565b840191505092915050565b60006020820190508181036000830152612e968184612e43565b905092915050565b600073ffffffffffffffffffffffffffffffffffffffff82169050919050565b6000612ec982612e9e565b9050919050565b612ed981612ebe565b82525050565b6000602082019050612ef46000830184612ed0565b92915050565b612f0381612ebe565b8114612f0e57600080fd5b50565b600081359050612f2081612efa565b92915050565b60008060408385031215612f3d57612f3c612c62565b5b6000612f4b85828601612f11565b9250506020612f5c85828601612c8d565b9150509250929050565b6000602082019050612f7b6000830184612ccf565b92915050565b600080600060608486031215612f9a57612f99612c62565b5b6000612fa886828701612f11565b9350506020612fb986828701612f11565b9250506040612fca86828701612c8d565b9150509250925092565b60008060408385031215612feb57612fea612c62565b5b6000612ff985828601612c8d565b925050602061300a85828601612c8d565b9150509250929050565b60006020828403121561302a57613029612c62565b5b600061303884828501612f11565b91505092915050565b61304a81612cde565b811461305557600080fd5b50565b60008135905061306781613041565b92915050565b6000806040838503121561308457613083612c62565b5b600061309285828601612f11565b92505060206130a385828601613058565b9150509250929050565b600080fd5b600080fd5b7f4e487b7100000000000000000000000000000000000000000000000000000000600052604160045260246000fd5b6130ef82612e32565b810181811067ffffffffffffffff8211171561310e5761310d6130b7565b5b80604052505050565b6000613121612c58565b905061312d82826130e6565b919050565b600067ffffffffffffffff82111561314d5761314c6130b7565b5b61315682612e32565b9050602081019050919050565b82818337600083830152505050565b600061318561318084613132565b613117565b9050828152602081018484840111156131a1576131a06130b2565b5b6131ac848285613163565b509392505050565b600082601f8301126131c9576131c86130ad565b5b81356131d9848260208601613172565b91505092915050565b600080600080608085870312156131fc576131fb612c62565b5b600061320a87828801612f11565b945050602061321b87828801612f11565b935050604061322c87828801612c8d565b925050606085013567ffffffffffffffff81111561324d5761324c612c67565b5b613259878288016131b4565b91505092959194509250565b6000806040838503121561327c5761327b612c62565b5b600061328a85828601612c8d565b925050602061329b85828601613058565b9150509250929050565b600080604083850312156132bc576132bb612c62565b5b60006132ca85828601612f11565b92505060206132db85828601612f11565b9150509250929050565b7f4e487b7100000000000000000000000000000000000000000000000000000000600052602260045260246000fd5b6000600282049050600182168061332c57607f821691505b60208210810361333f5761333e6132e5565b5b50919050565b7f4552433732313a20617070726f76616c20746f2063757272656e74206f776e6560008201527f7200000000000000000000000000000000000000000000000000000000000000602082015250565b60006133a1602183612df7565b91506133ac82613345565b604082019050919050565b600060208201905081810360008301526133d081613394565b9050919050565b7f4552433732313a20617070726f76652063616c6c6572206973206e6f7420746f60008201527f6b656e206f776e6572206f7220617070726f76656420666f7220616c6c000000602082015250565b6000613433603d83612df7565b915061343e826133d7565b604082019050919050565b6000602082019050818103600083015261346281613426565b9050919050565b60008151905061347881612c76565b92915050565b60006020828403121561349457613493612c62565b5b60006134a284828501613469565b91505092915050565b7f4275792044414f20546f6b656e73200000000000000000000000000000000000600082015250565b60006134e1600f83612df7565b91506134ec826134ab565b602082019050919050565b60006020820190508181036000830152613510816134d4565b9050919050565b7f4e4f545f454e4f5547485f46554e445300000000000000000000000000000000600082015250565b600061354d601083612df7565b915061355882613517565b602082019050919050565b6000602082019050818103600083015261357c81613540565b9050919050565b7f73656e6420302e30322065746865720000000000000000000000000000000000600082015250565b60006135b9600f83612df7565b91506135c482613583565b602082019050919050565b600060208201905081810360008301526135e8816135ac565b9050919050565b7f4552433732313a2063616c6c6572206973206e6f7420746f6b656e206f776e6560008201527f72206f7220617070726f76656400000000000000000000000000000000000000602082015250565b600061364b602d83612df7565b9150613656826135ef565b604082019050919050565b6000602082019050818103600083015261367a8161363e565b9050919050565b7f455243373231456e756d657261626c653a206f776e657220696e646578206f7560008201527f74206f6620626f756e6473000000000000000000000000000000000000000000602082015250565b60006136dd602b83612df7565b91506136e882613681565b604082019050919050565b6000602082019050818103600083015261370c816136d0565b9050919050565b7f455243373231456e756d657261626c653a20676c6f62616c20696e646578206f60008201527f7574206f6620626f756e64730000000000000000000000000000000000000000602082015250565b600061376f602c83612df7565b915061377a82613713565b604082019050919050565b6000602082019050818103600083015261379e81613762565b9050919050565b7f4e487b7100000000000000000000000000000000000000000000000000000000600052603260045260246000fd5b7f4552433732313a20696e76616c696420746f6b656e2049440000000000000000600082015250565b600061380a601883612df7565b9150613815826137d4565b602082019050919050565b60006020820190508181036000830152613839816137fd565b9050919050565b7f4e487b7100000000000000000000000000000000000000000000000000000000600052601160045260246000fd5b600061387a82612c6c565b91507fffffffffffffffffffffffffffffffffffffffffffffffffffffffffffffffff82036138ac576138ab613840565b5b600182019050919050565b7f4552433732313a2061646472657373207a65726f206973206e6f74206120766160008201527f6c6964206f776e65720000000000000000000000000000000000000000000000602082015250565b6000613913602983612df7565b915061391e826138b7565b604082019050919050565b6000602082019050818103600083015261394281613906565b9050919050565b7f4e6f7468696e6720746f2077697468647261772c20636f6e747261637420626160008201527f6c616e636520656d707479000000000000000000000000000000000000000000602082015250565b60006139a5602b83612df7565b91506139b082613949565b604082019050919050565b600060208201905081810360008301526139d481613998565b9050919050565b600081905092915050565b50565b60006139f66000836139db565b9150613a01826139e6565b600082019050919050565b6000613a17826139e9565b9150819050919050565b7f4641494c45445f544f5f57495448445241575f45544845520000000000000000600082015250565b6000613a57601883612df7565b9150613a6282613a21565b602082019050919050565b60006020820190508181036000830152613a8681613a4a565b9050919050565b600081905092915050565b6000613aa382612dec565b613aad8185613a8d565b9350613abd818560208601612e08565b80840191505092915050565b6000613ad58285613a98565b9150613ae18284613a98565b91508190509392505050565b7f70726f706f73616c20646f65736e277420657869747300000000000000000000600082015250565b6000613b23601683612df7565b9150613b2e82613aed565b602082019050919050565b60006020820190508181036000830152613b5281613b16565b9050919050565b7f50726f706f73616c20616c726561647920657865637574656400000000000000600082015250565b6000613b8f601983612df7565b9150613b9a82613b59565b602082019050919050565b60006020820190508181036000830152613bbe81613b82565b9050919050565b7f444541444c494e455f4558434545444544000000000000000000000000000000600082015250565b6000613bfb601183612df7565b9150613c0682613bc5565b602082019050919050565b60006020820190508181036000830152613c2a81613bee565b9050919050565b6000819050919050565b6000819050919050565b6000613c60613c5b613c5684613c31565b613c3b565b612c6c565b9050919050565b613c7081613c45565b82525050565b6000604082019050613c8b6000830185612ed0565b613c986020830184613c67565b9392505050565b7f414c52454144595f564f54454400000000000000000000000000000000000000600082015250565b6000613cd5600d83612df7565b9150613ce082613c9f565b602082019050919050565b60006020820190508181036000830152613d0481613cc8565b9050919050565b6000613d1682612c6c565b9150613d2183612c6c565b9250828201905080821115613d3957613d38613840565b5b92915050565b7f4f776e61626c653a206e6577206f776e657220697320746865207a65726f206160008201527f6464726573730000000000000000000000000000000000000000000000000000602082015250565b6000613d9b602683612df7565b9150613da682613d3f565b604082019050919050565b60006020820190508181036000830152613dca81613d8e565b9050919050565b7f4552433732313a206d696e7420746f20746865207a65726f2061646472657373600082015250565b6000613e07602083612df7565b9150613e1282613dd1565b602082019050919050565b60006020820190508181036000830152613e3681613dfa565b9050919050565b7f4552433732313a20746f6b656e20616c7265616479206d696e74656400000000600082015250565b6000613e73601c83612df7565b9150613e7e82613e3d565b602082019050919050565b60006020820190508181036000830152613ea281613e66565b9050919050565b7f4552433732313a207472616e736665722066726f6d20696e636f72726563742060008201527f6f776e6572000000000000000000000000000000000000000000000000000000602082015250565b6000613f05602583612df7565b9150613f1082613ea9565b604082019050919050565b60006020820190508181036000830152613f3481613ef8565b9050919050565b7f4552433732313a207472616e7366657220746f20746865207a65726f2061646460008201527f7265737300000000000000000000000000000000000000000000000000000000602082015250565b6000613f97602483612df7565b9150613fa282613f3b565b604082019050919050565b60006020820190508181036000830152613fc681613f8a565b9050919050565b7f4f776e61626c653a2063616c6c6572206973206e6f7420746865206f776e6572600082015250565b6000614003602083612df7565b915061400e82613fcd565b602082019050919050565b6000602082019050818103600083015261403281613ff6565b9050919050565b7f4552433732313a20617070726f766520746f2063616c6c657200000000000000600082015250565b600061406f601983612df7565b915061407a82614039565b602082019050919050565b6000602082019050818103600083015261409e81614062565b9050919050565b7f4552433732313a207472616e7366657220746f206e6f6e20455243373231526560008201527f63656976657220696d706c656d656e7465720000000000000000000000000000602082015250565b6000614101603283612df7565b915061410c826140a5565b604082019050919050565b60006020820190508181036000830152614130816140f4565b9050919050565b7f4e487b7100000000000000000000000000000000000000000000000000000000600052601260045260246000fd5b7f455243373231456e756d657261626c653a20636f6e736563757469766520747260008201527f616e7366657273206e6f7420737570706f727465640000000000000000000000602082015250565b60006141c2603583612df7565b91506141cd82614166565b604082019050919050565b600060208201905081810360008301526141f1816141b5565b9050919050565b600081519050919050565b600082825260208201905092915050565b600061421f826141f8565b6142298185614203565b9350614239818560208601612e08565b61424281612e32565b840191505092915050565b60006080820190506142626000830187612ed0565b61426f6020830186612ed0565b61427c6040830185612ccf565b818103606083015261428e8184614214565b905095945050505050565b6000815190506142a881612d78565b92915050565b6000602082840312156142c4576142c3612c62565b5b60006142d284828501614299565b91505092915050565b60006142e682612c6c565b91506142f183612c6c565b925082820390508181111561430957614308613840565b5b92915050565b7f4e487b7100000000000000000000000000000000000000000000000000000000600052603160045260246000fdfea2646970667358221220a7f40dcc87279739664c6dd5ed073a813963f1bafc7f7821f142a27f4aa0f4a864736f6c63430008120033",
  "linkReferences": {},
  "deployedLinkReferences": {}
}