{
  "_format": "hh-sol-artifact-1",
  "contractName": "DAO",
  "sourceName": "contracts/Dao.sol",
  "abi": [
    {
      "inputs": [
        {
          "internalType": "address",
          "name": "_nftMarketplace",
          "type": "address"
        },
        {
          "internalType": "address",
          "name": "_artoken",
          "type": "address"
        },
        {
          "internalType": "address",
          "name": "_daotoken",
          "type": "address"
        }
      ],
      "stateMutability": "nonpayable",
      "type": "constructor"
    },
    {
      "anonymous": false,
      "inputs": [
        {
          "indexed": true,
          "internalType": "address",
          "name": "previousOwner",
          "type": "address"
        },
        {
          "indexed": true,
          "internalType": "address",
          "name": "newOwner",
          "type": "address"
        }
      ],
      "name": "OwnershipTransferred",
      "type": "event"
    },
    {
      "inputs": [
        {
          "internalType": "uint256",
          "name": "_tokenId",
          "type": "uint256"
        },
        {
          "internalType": "uint256",
          "name": "_deadline",
          "type": "uint256"
        }
      ],
      "name": "CreateProposal",
      "outputs": [],
      "stateMutability": "nonpayable",
      "type": "function"
    },
    {
      "inputs": [
        {
          "internalType": "uint256",
          "name": "proposalIndex",
          "type": "uint256"
        }
      ],
      "name": "executeProposal",
      "outputs": [],
      "stateMutability": "nonpayable",
      "type": "function"
    },
    {
      "inputs": [],
      "name": "getBalance",
      "outputs": [
        {
          "internalType": "uint256",
          "name": "",
          "type": "uint256"
        }
      ],
      "stateMutability": "view",
      "type": "function"
    },
    {
      "inputs": [],
      "name": "owner",
      "outputs": [
        {
          "internalType": "address",
          "name": "",
          "type": "address"
        }
      ],
      "stateMutability": "view",
      "type": "function"
    },
    {
      "inputs": [
        {
          "internalType": "uint256",
          "name": "",
          "type": "uint256"
        }
      ],
      "name": "proposals",
      "outputs": [
        {
          "internalType": "uint256",
          "name": "nftTokenId",
          "type": "uint256"
        },
        {
          "internalType": "uint256",
          "name": "deadline",
          "type": "uint256"
        },
        {
          "internalType": "uint256",
          "name": "PosVotes",
          "type": "uint256"
        },
        {
          "internalType": "uint256",
          "name": "NegVotes",
          "type": "uint256"
        },
        {
          "internalType": "bool",
          "name": "executed",
          "type": "bool"
        }
      ],
      "stateMutability": "view",
      "type": "function"
    },
    {
      "inputs": [],
      "name": "renounceOwnership",
      "outputs": [],
      "stateMutability": "nonpayable",
      "type": "function"
    },
    {
      "inputs": [],
      "name": "totalProposals",
      "outputs": [
        {
          "internalType": "uint256",
          "name": "",
          "type": "uint256"
        }
      ],
      "stateMutability": "view",
      "type": "function"
    },
    {
      "inputs": [
        {
          "internalType": "address",
          "name": "newOwner",
          "type": "address"
        }
      ],
      "name": "transferOwnership",
      "outputs": [],
      "stateMutability": "nonpayable",
      "type": "function"
    },
    {
      "inputs": [
        {
          "internalType": "uint256",
          "name": "_proposalId",
          "type": "uint256"
        },
        {
          "internalType": "bool",
          "name": "_vote",
          "type": "bool"
        }
      ],
      "name": "vote",
      "outputs": [],
      "stateMutability": "nonpayable",
      "type": "function"
    },
    {
      "inputs": [],
      "name": "withdrawEther",
      "outputs": [],
      "stateMutability": "nonpayable",
      "type": "function"
    },
    {
      "stateMutability": "payable",
      "type": "receive"
    }
  ],
  "bytecode": "0x608060405260006005553480156200001657600080fd5b50604051620019673803806200196783398181016040528101906200003c91906200025e565b6200005c620000506200012860201b60201c565b6200013060201b60201c565b82600160006101000a81548173ffffffffffffffffffffffffffffffffffffffff021916908373ffffffffffffffffffffffffffffffffffffffff16021790555081600260006101000a81548173ffffffffffffffffffffffffffffffffffffffff021916908373ffffffffffffffffffffffffffffffffffffffff16021790555080600360006101000a81548173ffffffffffffffffffffffffffffffffffffffff021916908373ffffffffffffffffffffffffffffffffffffffff160217905550505050620002ba565b600033905090565b60008060009054906101000a900473ffffffffffffffffffffffffffffffffffffffff169050816000806101000a81548173ffffffffffffffffffffffffffffffffffffffff021916908373ffffffffffffffffffffffffffffffffffffffff1602179055508173ffffffffffffffffffffffffffffffffffffffff168173ffffffffffffffffffffffffffffffffffffffff167f8be0079c531659141344cd1fd0a4f28419497f9722a3daafe3b4186f6b6457e060405160405180910390a35050565b600080fd5b600073ffffffffffffffffffffffffffffffffffffffff82169050919050565b60006200022682620001f9565b9050919050565b620002388162000219565b81146200024457600080fd5b50565b60008151905062000258816200022d565b92915050565b6000806000606084860312156200027a5762000279620001f4565b5b60006200028a8682870162000247565b93505060206200029d8682870162000247565b9250506040620002b08682870162000247565b9150509250925092565b61169d80620002ca6000396000f3fe6080604052600436106100955760003560e01c80637362377b116100595780637362377b146101765780638da5cb5b1461018d578063a78d80fc146101b8578063c9d27afe146101e3578063f2fde38b1461020c5761009c565b8063013cf08b146100a15780630d61b519146100e257806312065fe01461010b5780636638d63c14610136578063715018a61461015f5761009c565b3661009c57005b600080fd5b3480156100ad57600080fd5b506100c860048036038101906100c39190610e0b565b610235565b6040516100d9959493929190610e62565b60405180910390f35b3480156100ee57600080fd5b5061010960048036038101906101049190610e0b565b610278565b005b34801561011757600080fd5b50610120610511565b60405161012d9190610eb5565b60405180910390f35b34801561014257600080fd5b5061015d60048036038101906101589190610ed0565b610519565b005b34801561016b57600080fd5b5061017461063f565b005b34801561018257600080fd5b5061018b610653565b005b34801561019957600080fd5b506101a261075a565b6040516101af9190610f51565b60405180910390f35b3480156101c457600080fd5b506101cd610783565b6040516101da9190610eb5565b60405180910390f35b3480156101ef57600080fd5b5061020a60048036038101906102059190610f98565b610789565b005b34801561021857600080fd5b50610233600480360381019061022e9190611004565b610c03565b005b60046020528060005260406000206000915090508060000154908060010154908060020154908060030154908060040160009054906101000a900460ff16905085565b6000600360009054906101000a900473ffffffffffffffffffffffffffffffffffffffff1673ffffffffffffffffffffffffffffffffffffffff166370a08231336040518263ffffffff1660e01b81526004016102d59190610f51565b602060405180830381865afa1580156102f2573d6000803e3d6000fd5b505050506040513d601f19601f820116820180604052508101906103169190611046565b11610356576040517f08c379a000000000000000000000000000000000000000000000000000000000815260040161034d906110d0565b60405180910390fd5b60006004600083815260200190815260200160002090508060030154816002015411156104f0576000600160009054906101000a900473ffffffffffffffffffffffffffffffffffffffff1673ffffffffffffffffffffffffffffffffffffffff166398d5fdca6040518163ffffffff1660e01b8152600401602060405180830381865afa1580156103ec573d6000803e3d6000fd5b505050506040513d601f19601f820116820180604052508101906104109190611046565b905080471015610455576040517f08c379a000000000000000000000000000000000000000000000000000000000815260040161044c9061113c565b60405180910390fd5b600160009054906101000a900473ffffffffffffffffffffffffffffffffffffffff1673ffffffffffffffffffffffffffffffffffffffff1663efef39a1666a94d74f43000084600001546040518363ffffffff1660e01b81526004016104bc9190610eb5565b6000604051808303818588803b1580156104d557600080fd5b505af11580156104e9573d6000803e3d6000fd5b5050505050505b60018160040160006101000a81548160ff0219169083151502179055505050565b600047905090565b6000600360009054906101000a900473ffffffffffffffffffffffffffffffffffffffff1673ffffffffffffffffffffffffffffffffffffffff166370a08231336040518263ffffffff1660e01b81526004016105769190610f51565b602060405180830381865afa158015610593573d6000803e3d6000fd5b505050506040513d601f19601f820116820180604052508101906105b79190611046565b116105f7576040517f08c379a00000000000000000000000000000000000000000000000000000000081526004016105ee906110d0565b60405180910390fd5b60006004600060055481526020019081526020016000209050818160010181905550828160000181905550600560008154809291906106359061118b565b9190505550505050565b610647610c86565b6106516000610d04565b565b61065b610c86565b6000479050600081116106a3576040517f08c379a000000000000000000000000000000000000000000000000000000000815260040161069a90611245565b60405180910390fd5b60006106ad61075a565b73ffffffffffffffffffffffffffffffffffffffff16826040516106d090611296565b60006040518083038185875af1925050503d806000811461070d576040519150601f19603f3d011682016040523d82523d6000602084013e610712565b606091505b5050905080610756576040517f08c379a000000000000000000000000000000000000000000000000000000000815260040161074d906112f7565b60405180910390fd5b5050565b60008060009054906101000a900473ffffffffffffffffffffffffffffffffffffffff16905090565b60055481565b6000600360009054906101000a900473ffffffffffffffffffffffffffffffffffffffff1673ffffffffffffffffffffffffffffffffffffffff166370a08231336040518263ffffffff1660e01b81526004016107e69190610f51565b602060405180830381865afa158015610803573d6000803e3d6000fd5b505050506040513d601f19601f820116820180604052508101906108279190611046565b11610867576040517f08c379a000000000000000000000000000000000000000000000000000000000815260040161085e906110d0565b60405180910390fd5b60055482106108ab576040517f08c379a00000000000000000000000000000000000000000000000000000000081526004016108a290611363565b60405180910390fd5b600015156004600084815260200190815260200160002060040160009054906101000a900460ff16151514610915576040517f08c379a000000000000000000000000000000000000000000000000000000000815260040161090c906113cf565b60405180910390fd5b4260046000848152602001908152602001600020600101541161096d576040517f08c379a00000000000000000000000000000000000000000000000000000000081526004016109649061143b565b60405180910390fd5b60008060046000858152602001908152602001600020905060005b600360009054906101000a900473ffffffffffffffffffffffffffffffffffffffff1673ffffffffffffffffffffffffffffffffffffffff166370a08231336040518263ffffffff1660e01b81526004016109e39190610f51565b602060405180830381865afa158015610a00573d6000803e3d6000fd5b505050506040513d601f19601f82011682018060405250810190610a249190611046565b811015610b4d576000600360009054906101000a900473ffffffffffffffffffffffffffffffffffffffff1673ffffffffffffffffffffffffffffffffffffffff16632f745c593360006040518363ffffffff1660e01b8152600401610a8b9291906114a0565b602060405180830381865afa158015610aa8573d6000803e3d6000fd5b505050506040513d601f19601f82011682018060405250810190610acc9190611046565b90506000151583600501600083815260200190815260200160002060009054906101000a900460ff16151503610b39578380610b079061118b565b945050600183600501600083815260200190815260200160002060006101000a81548160ff0219169083151502179055505b508080610b459061118b565b915050610988565b5060008211610b91576040517f08c379a0000000000000000000000000000000000000000000000000000000008152600401610b8890611515565b60405180910390fd5b6001151583151503610bcf5781600460008681526020019081526020016000206002016000828254610bc39190611535565b92505081905550610bfd565b81600460008681526020019081526020016000206003016000828254610bf59190611535565b925050819055505b50505050565b610c0b610c86565b600073ffffffffffffffffffffffffffffffffffffffff168173ffffffffffffffffffffffffffffffffffffffff1603610c7a576040517f08c379a0000000000000000000000000000000000000000000000000000000008152600401610c71906115db565b60405180910390fd5b610c8381610d04565b50565b610c8e610dc8565b73ffffffffffffffffffffffffffffffffffffffff16610cac61075a565b73ffffffffffffffffffffffffffffffffffffffff1614610d02576040517f08c379a0000000000000000000000000000000000000000000000000000000008152600401610cf990611647565b60405180910390fd5b565b60008060009054906101000a900473ffffffffffffffffffffffffffffffffffffffff169050816000806101000a81548173ffffffffffffffffffffffffffffffffffffffff021916908373ffffffffffffffffffffffffffffffffffffffff1602179055508173ffffffffffffffffffffffffffffffffffffffff168173ffffffffffffffffffffffffffffffffffffffff167f8be0079c531659141344cd1fd0a4f28419497f9722a3daafe3b4186f6b6457e060405160405180910390a35050565b600033905090565b600080fd5b6000819050919050565b610de881610dd5565b8114610df357600080fd5b50565b600081359050610e0581610ddf565b92915050565b600060208284031215610e2157610e20610dd0565b5b6000610e2f84828501610df6565b91505092915050565b610e4181610dd5565b82525050565b60008115159050919050565b610e5c81610e47565b82525050565b600060a082019050610e776000830188610e38565b610e846020830187610e38565b610e916040830186610e38565b610e9e6060830185610e38565b610eab6080830184610e53565b9695505050505050565b6000602082019050610eca6000830184610e38565b92915050565b60008060408385031215610ee757610ee6610dd0565b5b6000610ef585828601610df6565b9250506020610f0685828601610df6565b9150509250929050565b600073ffffffffffffffffffffffffffffffffffffffff82169050919050565b6000610f3b82610f10565b9050919050565b610f4b81610f30565b82525050565b6000602082019050610f666000830184610f42565b92915050565b610f7581610e47565b8114610f8057600080fd5b50565b600081359050610f9281610f6c565b92915050565b60008060408385031215610faf57610fae610dd0565b5b6000610fbd85828601610df6565b9250506020610fce85828601610f83565b9150509250929050565b610fe181610f30565b8114610fec57600080fd5b50565b600081359050610ffe81610fd8565b92915050565b60006020828403121561101a57611019610dd0565b5b600061102884828501610fef565b91505092915050565b60008151905061104081610ddf565b92915050565b60006020828403121561105c5761105b610dd0565b5b600061106a84828501611031565b91505092915050565b600082825260208201905092915050565b7f796f7520646f6e7420686f6c6420746865206e66740000000000000000000000600082015250565b60006110ba601583611073565b91506110c582611084565b602082019050919050565b600060208201905081810360008301526110e9816110ad565b9050919050565b7f4e4f545f454e4f5547485f46554e445300000000000000000000000000000000600082015250565b6000611126601083611073565b9150611131826110f0565b602082019050919050565b6000602082019050818103600083015261115581611119565b9050919050565b7f4e487b7100000000000000000000000000000000000000000000000000000000600052601160045260246000fd5b600061119682610dd5565b91507fffffffffffffffffffffffffffffffffffffffffffffffffffffffffffffffff82036111c8576111c761115c565b5b600182019050919050565b7f4e6f7468696e6720746f2077697468647261772c20636f6e747261637420626160008201527f6c616e636520656d707479000000000000000000000000000000000000000000602082015250565b600061122f602b83611073565b915061123a826111d3565b604082019050919050565b6000602082019050818103600083015261125e81611222565b9050919050565b600081905092915050565b50565b6000611280600083611265565b915061128b82611270565b600082019050919050565b60006112a182611273565b9150819050919050565b7f4641494c45445f544f5f57495448445241575f45544845520000000000000000600082015250565b60006112e1601883611073565b91506112ec826112ab565b602082019050919050565b60006020820190508181036000830152611310816112d4565b9050919050565b7f70726f706f73616c20646f65736e277420657869747300000000000000000000600082015250565b600061134d601683611073565b915061135882611317565b602082019050919050565b6000602082019050818103600083015261137c81611340565b9050919050565b7f50726f706f73616c20616c726561647920657865637574656400000000000000600082015250565b60006113b9601983611073565b91506113c482611383565b602082019050919050565b600060208201905081810360008301526113e8816113ac565b9050919050565b7f444541444c494e455f4558434545444544000000000000000000000000000000600082015250565b6000611425601183611073565b9150611430826113ef565b602082019050919050565b6000602082019050818103600083015261145481611418565b9050919050565b6000819050919050565b6000819050919050565b600061148a6114856114808461145b565b611465565b610dd5565b9050919050565b61149a8161146f565b82525050565b60006040820190506114b56000830185610f42565b6114c26020830184611491565b9392505050565b7f414c52454144595f564f54454400000000000000000000000000000000000000600082015250565b60006114ff600d83611073565b915061150a826114c9565b602082019050919050565b6000602082019050818103600083015261152e816114f2565b9050919050565b600061154082610dd5565b915061154b83610dd5565b92508282019050808211156115635761156261115c565b5b92915050565b7f4f776e61626c653a206e6577206f776e657220697320746865207a65726f206160008201527f6464726573730000000000000000000000000000000000000000000000000000602082015250565b60006115c5602683611073565b91506115d082611569565b604082019050919050565b600060208201905081810360008301526115f4816115b8565b9050919050565b7f4f776e61626c653a2063616c6c6572206973206e6f7420746865206f776e6572600082015250565b6000611631602083611073565b915061163c826115fb565b602082019050919050565b6000602082019050818103600083015261166081611624565b905091905056fea2646970667358221220af3df03d6d41d8ac3e644b0b2584a0c6fe06361327fa465eb245b5d929fbebe164736f6c63430008120033",
  "linkReferences": {},
  "deployedLinkReferences": {}
}